:020000040800F2
:10000000A808002071260008792600087B26000831
:100010007D2600087F2600088126000800000000D9
:10002000000000000000000000000000832600081F
:1000300085260008000000008726000889260008A1
:100040008B2600088B2600088B2600088B260008CC
:100050008B2600088B2600088B2600088B260008BC
:100060008B2600088B2600088B2600088B260008AC
:100070008B2600088B2600088B2600088B2600089C
:100080008B2600088B2600088B2600088B2600088C
:100090008B2600088B2600088B2600088B2600087C
:1000A0008B2600088B2600088B2600088B2600086C
:1000B0008B2600088B2600088B2600088B2600085C
:1000C0008B2600088B2600088B2600088B2600084C
:1000D0008B260008750300088B2600088B26000875
:1000E0008B2600088B2600088B2600088B2600082C
:1000F0008B2600088B2600088B2600088B2600081C
:100100008B2600088B2600088B2600088B2600080B
:100110006D0500088B2600088B2600088B2600083A
:100120008B2600088B2600088B2600088B260008EB
:10013000DFF80CD002F040FC004800474501000801
:10014000A8080020B4B00024C82102A802F0ABFB2C
:1001500001F020FC4FF4E13000F0B2F94FF4E1304F
:1001600000F0B2F8052001F07BFC1FA002F098FC23
:1001700021A0009024A002F0C4FB01900CE000F04C
:1001800050FF18B922A002F08BFC06E025A002F077
:1001900087FC012001F064FCF1E700BF23E0684622
:1001A00001F017F8D0B923A002F07AFC032001F087
:1001B00057FC12E0C82102A801F086F9044664B198
:1001C00002AA21461FA002F06BFC022121A001F02F
:1001D00044F910B120A002F063FCEBE722A002F08A
:1001E0005FFC00BFFEE7DAE70D0A426567696E2E25
:1001F0002E2E0D0A000000003231382E36362E35F4
:10020000392E323031000000383838380000000014
:10021000475539303620696E6974206F6B2E0D0A90
:100220000D0A0000696E6974206572726F722E0D7E
:100230000A000000736F636B6574206F6B0D0A0D0D
:100240000A000000475052533A5B25645D5B2573FA
:100250005D0D0A004F4B000053656E6420457272BD
:100260006F722E0D0A00000047553930365F544337
:10027000505F536F636B6574204552524F522E0D81
:100280000A000000014600BF704770B504460D46E5
:1002900000BF40210B4801F051FF0028F9D0E1B226
:1002A000084801F0DDFE204670BD10B5044600BFD1
:1002B0002021044801F042FF0028F9D0014801F054
:1002C000D3FE10BD0038014010B586B004460121B0
:1002D000880302F0FBF80121042002F0F7F84FF444
:1002E0000070ADF8140018208DF8170003208DF869
:1002F000160005A96E4801F029FC4FF48060ADF8A6
:10030000140004208DF8170005A9694801F01EFCAF
:1003100001940020ADF80800ADF80A00ADF80C001B
:10032000ADF810000C20ADF80E0001A9614801F0F5
:100330009EFD25208DF8000000208DF801008DF82D
:10034000020001208DF80300684602F028F901221E
:1003500040F22551574801F022FE0121554801F095
:1003600012FE4021534801F0F6FE00205249086079
:1003700006B010BD10B5002440F225514D4801F0E3
:10038000F3FEC0B14C480068C8280FDA494801F0B4
:100390006BFEC4B214B94848006838B146480168D9
:1003A0000068401C444A10604448445440F22551BF
:1003B000404801F003FF08213E4801F0BFFE01283C
:1003C00006D108213B4801F0C6FE3A4801F04CFE38
:1003D00010BD70B505460E4600240BE000BF40215D
:1003E000344801F0ABFE0028F9D0295D314801F016
:1003F00037FE641CB442F1DB00BF40212D4801F000
:100400009DFE0028F9D004E040F22771294801F050
:10041000D5FE8021274801F091FE0028F4D070BD60
:100420002DE9F04105460F46234806680024A04602
:100430000A2001F0ECFA20480068864213D196B1F8
:1004400000BF06E01D48005D285500201B490855E7
:10045000641CB44202DA781EA042F3DC0020285566
:10046000A046154908604046BDE8F08170B51248C5
:10047000046800250A2001F0CAFA16E00E48006858
:1004800084420DD164B1002503E000200B4948559A
:100490006D1CA54201DAC72DF7DB00200649086074
:1004A0000A2001F0B4FA04480468002CE6D170BDBB
:1004B00000080140003801400400002048000020EE
:1004C00010B586B004460121C80402F00CF80121E1
:1004D000102001F0FBFF4FF48060ADF814001820ED
:1004E0008DF8170003208DF8160005A96F4801F05C
:1004F0002DFB4FF40060ADF8140004208DF81700B8
:1005000005A96A4801F022FB01940020ADF808001B
:10051000ADF80A00ADF80C00ADF810000C20ADF8F5
:100520000E0001A9624801F0A2FC34208DF8000001
:1005300003208DF801008DF8020001208DF80300E2
:10054000684602F02CF8012240F22551584801F08B
:1005500026FD0121564801F016FD4021544801F0C6
:10056000FAFD00205349086006B010BD10B5002404
:1005700040F225514E4801F0F7FDC8B14D480068E2
:10058000B0F5967F0FDA4A4801F06EFDC4B214B997
:100590004848006838B1474801680068401C454A2F
:1005A00010604548445440F22551414801F006FE90
:1005B00008213F4801F0C2FD012806D108213C482E
:1005C00001F0C9FD3A4801F04FFD10BD70B5054678
:1005D0000E4600240BE000BF4021354801F0AEFD7F
:1005E0000028F9D0295D324801F03AFD641CB4427C
:1005F000F1DB00BF40212E4801F0A0FD0028F9D01A
:1006000004E040F227712A4801F0D8FD80212848F3
:1006100001F094FD0028F4D070BD2DE9F0410546AD
:100620000F46244806680024A0460A2001F0EFF98E
:1006300020480068864213D196B100BF06E01E48EC
:10064000005D285500201C490855641CB44202DA9C
:10065000781EA042F3DC00202855A046154908600A
:100660004046BDE8F08170B51248046800250A20B4
:1006700001F0CDF917E00F48006884420ED16CB14B
:10068000002503E000200C4948556D1CA54202DA04
:10069000B5F5957FF6DD0020064908600A2001F0D7
:1006A000B6F904480468002CE5D170BD0010014083
:1006B000004C0040080000201001002030B5034627
:1006C0000C46002122E0585C302806DB585C3928B3
:1006D00003DC585C3038C5B216E0585C412806DBB4
:1006E000585C462803DC585C3738C5B20CE0585CCF
:1006F000612806DB585C662803DC585C5738C5B2B5
:1007000002E04FF0FF3030BD6554491C9142DADB06
:100710000020F8E770B50446002007E0104603E02B
:10072000451C655D2554401C8842F9DB1D1EA3F164
:100730000103F3D170BD70B506463446FBA002F04C
:10074000AFF9FEA1204602F0B9F8041E01D1401E07
:1007500070BDE41C0F21FA4802F0A5F8002504E062
:100760002078F74948556D1C641C2078222802D057
:1007700020780028F4D10020F1494855F1A002F07A
:100780008FF9F4A002F08CF9A41C3221EC480F3050
:1007900002F089F8002505E02178E9480F3041553D
:1007A0006D1C641C20782C2802D020780028F3D1FE
:1007B000E3490F31EBA002F073F9EEA002F070F9FB
:1007C000A41C3221DE48413002F06DF8002505E01E
:1007D0002178DB48413041556D1C641C207822286B
:1007E00002D020780028F3D1D5494131E4A002F0AD
:1007F00057F9E7A002F054F9641CC821D0487330BF
:1008000002F051F800E0641C207828B120780A2812
:10081000F9D020780D28F6D0002505E02178C848C9
:10082000733041556D1C641C207828B120780A284B
:1008300002D020780D28F1D10021C14873304155F4
:100840000146D6A002F02CF9002081E72DE9FC47F3
:1008500007460D46002600200090019080460024A7
:1008600081460FB1286808B9BDE8FC87CFA138469A
:1008700002F024F8041E5DD03A21384602F030F828
:10088000B0F1000956D0641D4FF0000805E0207853
:100890000DF8080008F10108641CE01B2968884273
:1008A00005DAB8F1050F02DA20783A28EFD10020F6
:1008B0000DF80800684602F024F8064609F101091F
:1008C000A9EB07012868401AB04204DCA9EB070134
:1008D0002868401A00E03046B64908600846494694
:1008E0000268B54801F0C6FFB2480668AFA13846B5
:1008F00001F0E4FF04463A21384601F0F1FF814659
:1009000009F10100001B0644E21B33463846296802
:10091000FFF700FF2868801B032802DC0020286006
:1009200002E02868801B28603A46A4A0296802F0EB
:10093000B7F844E0A4A1384601F0C0FF28B32C2149
:10094000384601F0CDFF041E1FD00026641CB046BF
:100950000DE02078302807DB2078392804DC227865
:100960003046761C9A490A5408F10108641C207824
:100970000D2806D020780A2803D0207808B1052E4B
:10098000E7D300209249885519E092A1384601F03A
:1009900095FF041E03D02046FFF7CDFE0FE08FA188
:1009A000384601F08BFF20B98EA1384601F086FF52
:1009B00028B18FA002F074F801209149087000BF9F
:1009C00052E710B5CCB004464FF4967101A801F07F
:1009D0006AFF002000900BE04FF4967101A8FFF72A
:1009E0001CFE0090009818B1694601A8FFF72EFF81
:1009F000201EA4F10104EFD14CB010BD2DE9F04749
:100A0000CEB005468A46904600204D9000262C68C0
:100A100000274FF0FF394FF4967101A801F043FF12
:100A200000207749087077A002F03AF87EA0696844
:100A300002F036F800BF05E021787EA002F030F821
:100A4000761C641C6868B042F6DC50A002F028F8FE
:100A5000002600240A20FFF7B4FFD5E90001FFF7C4
:100A6000B5FD287A222802D0287A0A2802D14FF030
:100A700000099CE29AE2002603E0002001A98855C3
:100A8000761CB6F5967FF8D300204D90002619E02D
:100A90004FF4967101A8FFF7C0FD4D904D9850B1ED
:100AA00065A001F0FDFF01A937A001F0F9FF4DA9F4
:100AB00001A8FFF7CBFE3046761C404502D96FF007
:100AC000010974E24D980028E2D04D48007810B139
:100AD0004FF0FF396BE2287A242825D2DFE800F0B6
:100AE000241213F114151617182224191ACCEEED3E
:100AF0001CECEB1FEAE9E81D1EE724E6E5E41BE336
:100B0000212024E200BF00BF00BF00BF00BF00BF24
:100B100000BF00BF00BF00BF00BF00BF00BF00BFDD
:100B200000BF00BF47A18FE03EE200000AB7D6C079
:100B3000EBCAD6BBFABAC50A00000000222C22007C
:100B400068030020736D732E70686F6E655B25738C
:100B50005D0D0A000AB7D6C0EBC9E8B1B8C0E0D055
:100B6000CD0A0000736D732E6465765B25735D0D91
:100B70000A0000000AB7D6C0EBCAB1BCE40A000004
:100B8000736D732E646174655B25735D0D0A0000DF
:100B90000AB7D6C0EBCAFDBEDD0A0000736D732E26
:100BA000646174613A5B25735D0D0A002B49504402
:100BB0002C0000000C0000203C020020425B256459
:100BC0005D5B25735D0D0A002B434D54493A0000CF
:100BD000120000202B434D47523A00005B3030306A
:100BE000305D00004275696C642054696D650000D9
:100BF000726573746172742E2E2E0D0A0D0A000038
:100C0000110000200D0A2D2D2D2D2D2D2D2D2D2DDA
:100C10002D2D2D2D2D2D2D2D2D2D2D2D2D2D2D2D04
:100C20002D2D2D2D0D0A00006C656E5B25645D0D6C
:100C30000A000000256300000D0A726563763A0D14
:100C40000A0000004F4B000001A801F037FE10B170
:100C50004FF00009ABE1FAA101A801F02FFE20B985
:100C6000F9A101A801F02AFE28B16420FFF7A9FE2E
:100C70004FF0FF399BE198E1AFF2380101A801F094
:100C80001DFE38B1F3A101A801F018FE10B14FF01C
:100C900000098CE1EAA101A801F010FE80B14FF03B
:100CA000FF3984E12EE133E1D5E0DDE020E093E09F
:100CB000BAE0A2E0F5E0DEE052E06BE024E000E024
:100CC00073E14FF0FF39AFF2840101A801F0F6FDA6
:100CD00068B1E2A101A801F0F1FD041E06D00834BC
:100CE00020783038012801D14FF000095FE15CE144
:100CF000DDA101A801F0E2FD28B10120FFF761FEAE
:100D00004FF0000953E150E1AFF2C80101A801F032
:100D1000D5FD08B3D5A101A801F0D0FD041E1ED059
:100D200002224CA9A01DFFF7C9FC9DF831019DF8D6
:100D3000301101EB810100EB4100C7B23946CDA073
:100D400001F0AEFE632F04DA122F02DB4FF0000930
:100D50002DE14FF0FF392AE14FF0FF3927E124E17F
:100D6000AFF2201101A801F0A9FD50B1C4A101A862
:100D700001F0A4FD10B14FF0000918E14FF0FF3968
:100D800015E1AFA101A801F099FD10B14FF0FF39B5
:100D90000DE10AE1AFF2541101A801F08FFD90B10D
:100DA000BAA101A801F08AFD041E09D0E41D207833
:100DB000302802D02078352802D14FF00009F6E023
:100DC0004FF0FF39F3E09EA101A801F077FD10B1CB
:100DD0004FF0FF39EBE0E8E0A3A101A801F06EFDC0
:100DE00010B14FF00009E2E095A101A801F066FD05
:100DF00010B14FF0FF39DAE0D7E0A6A101A801F069
:100E00005DFD40B1AFF2C41101A801F057FD10B172
:100E10004FF00009CBE08AA101A801F04FFD10B10D
:100E20004FF0FF39C3E0C0E09DA101A801F046FDED
:100E300040B1AFF2F01101A801F040FD10B14FF048
:100E40000009B4E07EA101A801F038FD10B14FF017
:100E5000FF39ACE0A9E095A101A801F02FFD10B188
:100E60004FF00009A3E0A0E04DA901A8FFF7EEFCB8
:100E70004FF000099BE08FA101A801F01FFD20B9F0
:100E80008FA101A801F01AFD10B14FF000098EE00A
:100E90006BA101A801F012FD10B14FF0FF3986E0FF
:100EA00083E08A480078E0B989A101A801F006FD35
:100EB00010B14FF000097AE088A101A801F0FEFC12
:100EC00048B95FA101A801F0F9FC20B987A101A8E8
:100ED00001F0F4FCA8B16420FFF773FD4FF0FF3977
:100EE00065E07DA101A801F0E9FC10B14FF0000917
:100EF0005DE053A101A801F0E1FC10B14FF0FF3912
:100F000055E052E06420FFF75CFD4FF000094EE031
:100F100071A101A801F0D2FCB8B34FF4197177A008
:100F200001F0BEFD5EA101A801F0C8FC041E2DD099
:100F30000A344FF41A7171A001F0B2FD20783038F4
:100F4000012823D140F26B216CA001F0A9FD6EA114
:100F500001A801F0B3FC041E18D040F26E2167A076
:100F600001F09EFD6BA101A801F0A8FC70B16DA17C
:100F700001A801F0A3FC48B16CA001F091FD012093
:100F8000524908704FF0000911E004E000204F4979
:100F9000087081460BE02AA101A801F08FFC10B176
:100FA0004FF0FF3903E000E000BF00BF63E54846B3
:100FB0004EB0BDE8F0872DE9FE4F05460E461446BB
:100FC0001F464FF000084FF47A796FF0010A142C95
:100FD00001D14FF47A691D2C01D14FF00A09009517
:100FE00001968DF8084012E00AF1010060B908F19D
:100FF00001008046B84203D34FF0FF30BDE8FE8FBA
:10100000012000F02DFD02E06FF00100F6E74A46F6
:1010100000216846FFF7F2FCB0F1000AE4D100BFFE
:10102000ECE710B56FF0010402231A46062142A036
:10103000FFF7C1FF041E01D0204610BD80E0000074
:101040004552524F520000004E4F204341525249E8
:10105000455200002B43504D533A00002B45534955
:101060004D533A20000000003E0000002B43535136
:101070003A000000D0C5BAC53A5B25645D0D0A0090
:101080002B43495053544152543A00002B4352458C
:10109000473A20002B4349504D55583A2030000024
:1010A0002B4349504D4F44453A20000053454E4490
:1010B000204F4B00434C4F5345204F4B0000000046
:1010C0002B434D45204552524F523A00100000200C
:1010D000434F4E4E454354204F4B00005245434F23
:1010E0004E4E454354494E4700000000434F4E4E7C
:1010F000454354204641494C000000004C696E6550
:101100003A25640D0A0000002B43495053544152C4
:10111000543A20003231382E36362E35392E3230C0
:1011200031000000383838380000000044545520A1
:101130004F4B0D0A00000000415445300D0A0000DD
:101140000A2303220B21F8A0FFF735FF041E01D06C
:10115000204610BD022306220B21F6A0FFF72BFF2D
:10116000041E01D02046F4E702230D221821F4A02A
:10117000FFF721FF041E01D02046EAE702230422E4
:101180000D21F6A0FFF717FF041E01D02046E0E76F
:10119000022305220D21F5A0FFF70DFF041E01D04B
:1011A0002046D6E703E0A01C08B92046D1E73C233F
:1011B0000E220821F1A0FFF7FEFE041EF3D100BFAE
:1011C000C7E710B5002301220421EFA0FFF7F3FECB
:1011D00010BD70B59AB00446642101A801F063FB0C
:1011E0006FF00105206808B1606810B928461AB090
:1011F00070BD206801F07EFB08B92846F7E702239E
:101200000F220A21E2A0FFF7D6FE051E01D02846D4
:10121000EDE7022310220A21E0A0FFF7CCFE051E15
:1012200001D02846E3E713E0022312220F21DEA0BB
:10123000FFF7C1FE051E01D02846D8E7022313227E
:101240000D21DDA0FFF7B7FE051E01D02846CEE731
:10125000002311220E21DCA0FFF7ADFE0028E3D011
:10126000022315220D21DCA0FFF7A5FE051E01D0EB
:101270002846BCE7022316221021DBA0FFF79BFEC5
:10128000051E01D02846B2E7022317221221DBA057
:10129000FFF791FE051E01D02846A8E70223182279
:1012A0001721DBA0FFF787FE051E01D028469EE729
:1012B00060680090DCA2DDA101A8236801F000FCB9
:1012C00001A801F017FB064603231422314601A8AA
:1012D000FFF771FE0546284689E770B59AB00446C7
:1012E000642101A801F0DFFA6FF00105206808B160
:1012F000606810B928461AB070BD206801F0FAFA8B
:1013000008B92846F7E702231F220E21CEA0FFF7D7
:1013100052FE051E00D067E0CF48007800284DD16E
:1013200002231E221121CDA0FFF745FE051E00D08D
:101330005AE0022317221221CDA0FFF73CFE051E22
:1013400000D051E0022318221721B1A0FFF733FE8D
:10135000051E00D048E0022318222521C9A0FFF76E
:101360002AFE051E00D03FE0022315220D219AA07F
:10137000FFF721FE051E00D036E0022316221021C1
:10138000CAA0FFF718FE051E00D02DE0606800908F
:10139000A5A2CBA101A8236801F092FB01A801F04E
:1013A000A9FA064602231322314601A8FFF703FEDD
:1013B000051E00D018E00120A74908706068009061
:1013C00099A29AA101A8236801F07AFB01A801F073
:1013D00091FA064602231422314601A8FFF7EBFDDD
:1013E000051E00D000E000BF284684E770B5044623
:1013F0004FF0FF35A4B10EE0022000F031FB0023D6
:1014000021220621B6A0FFF7D6FD051E00D022E05E
:10141000012091490870904800780028ECD019E02C
:1014200014E0022000F01CFB002320220321AEA0C8
:10143000FFF7C1FD051E06D0012000F011FBFFF7EC
:10144000C0FE00B107E000208349087082480078A0
:101450000028E6D100BF284670BDF0B585B005462E
:101460000C461421684601F01EFA4FF0FF3628465C
:1014700001F040FA10B9002005B0F0BD76480078C0
:10148000D0B9224699A1684601F01AFB684601F0DE
:1014900031FA07460023192239466846FFF78BFDCB
:1014A000061E00D00EE000231D2221462846FFF72D
:1014B00082FD061E05D005E021462846FFF786F886
:1014C000002600BF3046D7E770B505460E4600241B
:1014D0006148007808BB00BF88480068B0B10024AC
:1014E00003E08748005D2855641C844800688442F6
:1014F00002DA701EA042F4DC4FF49671804801F0CD
:10150000D2F900207D490860204670BD0120FFF718
:1015100058FA7A48006828B1DEE731462846FFF7D6
:101520007CF8F2E7EEE0000041542B4553494D535F
:101530003F0D0A0041542B434D47463D310D0A00F3
:1015400041542B43504D533D22534D222C22534D99
:10155000222C22534D220D0A0000000041542B433F
:101560004E4D493D322C310D0A00000041542B43B1
:101570004D47443D312C340D0A00000041542B43AB
:1015800053510D0A0000000041540D0A00000000F4
:1015900041542B435245473F0D0A000041542B4311
:1015A000494943520D0A000041542B434950434CD2
:1015B0004F53453D300D0A0041542B43495053438E
:1015C0004F4E540D0A00000041542B4349505354D0
:1015D0004152543F0D0A000041542B4349504D5590
:1015E000583D300D0A00000041542B4349504D4FE7
:1015F00044453D302C300D0A0000000041542B437F
:1016000049504346473D302C35302C300D0A000000
:1016100041542B4349505041434B3D302C223031F3
:1016200030324130220D0A005443500041542B43C4
:10163000495053544152543D222573222C22257384
:10164000222C25640D0A000041542B43495053437A
:101650004F4E543F0D0A00001000002041542B4310
:101660005354543D22434D4E4554220D0A00000070
:1016700041542B4349504346473D312C35302C30A3
:101680000D0A000041542B4349505041434B3D311A
:101690002C223443344634373439344533413331E2
:1016A000333033303331220D0A00000041542B43D4
:1016B00049504D4F44453D312C300D0A000000008B
:1016C00041542B43495053434F4E543D302C222517
:1016D00073222C222573222C25642C32000000005A
:1016E00041544F300D0A00002B2B2B0041542B434B
:1016F000495053454E443D25640D0A000C0000201E
:101700003C020020002000E730B585B004461421DB
:10171000684601F0C8F8224681A1684601F0D0F978
:10172000684601F0E7F8054600230A222946684684
:10173000FFF741FC05B030BD30B5CDB00446002008
:101740004C9000254FF4967101A801F0ACF800BF51
:1017500036E000204C904FF4967101A8FEF75DFF33
:101760004C904C9828B34CA901A8FFF76FF86FA1D3
:1017700001A801F0A3F840B1AFF2A46101A801F003
:101780009DF810B100204DB030BDAFF2447101A8FA
:1017900001F094F850B967A101A801F08FF828B9B9
:1017A000AFF2647101A801F089F810B14FF0FF3079
:1017B000E9E728466D1CA04202D96FF00100E2E77C
:1017C000C7E710B500230B2205215DA0FFF7F3FB4F
:1017D00010BDF0B58FB004460D466FF00106342100
:1017E00002A801F060F858A000680190204601F0BE
:1017F00081F80B2802D070100FB0F0BD0223062232
:101800000B21AFF2D020FFF7D6FB061E00D038E048
:101810000223092212214DA0FFF7CDFB061E00D0A6
:101820002FE0022304220D21AFF2D020FFF7C3FBEB
:10183000061E00D025E0224649A102A801F040F989
:1018400002A801F057F8074602231B22394602A8D6
:10185000FFF7B1FB061E00D013E0284601F04AF85E
:1018600007460023222239462846FFF7A4FB061E1E
:1018700006D100232322012101A8FFF79CFB064685
:1018800000BF3046B8E770B586B004466FF001057A
:10189000142101A801F007F80223092212212BA02C
:1018A000FFF789FB051E02D0284606B070BD224610
:1018B0002FA101A801F004F901A801F01BF80646C8
:1018C00002231C22314601A8FFF775FBEDE710B596
:1018D000022305220D21AFF26C30FFF76CFB10BD27
:1018E00010B500BF264801F005F870B1244925A0C5
:1018F00001F0D6F82248FFF7C6FFFFF7E8FF2048BF
:10190000002101600171002010BD0120FFF759F88E
:101910001B4800F0EFFF00B1E4E74FF0FF30F3E7C2
:1019200041544425733B0D0A000000002B434F4CEB
:10193000503A00002B435245473A20310000000046
:101940004154480D0A0000001A00000041542B4386
:101950005343533D22474232333132220D0A0000B5
:1019600041542B434D47533D222573220D0A00005D
:1019700041542B434D47523D25730D0A0000000092
:101980001200002053494D4461746149445B257342
:101990005D0D0A0010B56FF0040000F04AFE3748F4
:1019A00000683749B0FBF1F0364908700846007806
:1019B00000EB4001C1EBC0104FF6FF7101EAC0001F
:1019C0003149088010BD01462E4A12784A434FF033
:1019D000E0235A6100229A611A46126942F001021C
:1019E0001A6100BF4FF0E022106900F001021AB145
:1019F00000F48032002AF5D04FF0E022126922F084
:101A000001024FF0E0231A6100229A6170470146FB
:101A1000B1F5E96F01DD4FF4E9611B4A12884A43D1
:101A20004FF0E0235A6100229A611A46126942F08F
:101A300001021A6100BF4FF0E022106900F00102BC
:101A40001AB100F48032002AF5D04FF0E02212697A
:101A500022F001024FF0E0231A6100229A617047E0
:101A600030B50446002500BF04E04FF47A70FFF75C
:101A7000CEFF6D1CA542F8DB30BD00003000002019
:101A800000127A00180000201A00002010B5044649
:101A9000CC48844208D10121042000F031FD00210E
:101AA000042000F02DFD46E0C748844208D1012102
:101AB000082000F025FD0021082000F021FD3AE07B
:101AC000C248844208D10121102000F019FD0021F4
:101AD000102000F015FD2EE0BD48844208D1012100
:101AE000202000F00DFD0021202000F009FD22E063
:101AF000B848844208D10121402000F001FD0021B6
:101B0000402000F0FDFC16E0B348844208D10121DA
:101B1000802000F0F5FC0021802000F0F1FC0AE0BC
:101B2000AE48844207D10121801500F0E9FC002174
:101B3000A01500F0E5FC10BD10B50121084600F02D
:101B4000DFFC0021012000F0DBFC10BD2DE9F0419D
:101B5000024600250026002000230024002791F8DB
:101B600003C00CF00F0591F803C00CF0100CBCF191
:101B7000000F03D091F802C04CEA050591F800C0AF
:101B8000BCF1000F31D0146800202BE04FF0010CA5
:101B90000CFA00F3B1F800C00CEA03069E4220D113
:101BA00083004FF00F0C0CFA03F7BC4305FA03FC5B
:101BB0004CEA040491F803C0BCF1280F06D14FF0A1
:101BC000010C0CFA00FCC2F814C00AE091F803C042
:101BD000BCF1480F05D14FF0010C0CFA00FCC2F823
:101BE00010C0401C0828D1D31460B1F800C0BCF16B
:101BF000FF0F34DD546800202EE000F1080C4FF098
:101C0000010808FA0CF3B1F800C00CEA03069E4282
:101C100021D183004FF00F0C0CFA03F7BC4305FAF7
:101C200003FC4CEA040491F803C0BCF1280F05D171
:101C300000F1080C08FA0CF8C2F8148091F803C0FF
:101C4000BCF1480F07D100F1080C4FF0010808FA69
:101C50000CF8C2F81080401C0828CED35460BDE8B0
:101C6000F0814FF6FF710180022181700421C17063
:101C700070470246002093680B400BB1012000E042
:101C8000002070470146886880B2704702460020F5
:101C9000D3680B400BB1012000E0002070470146E3
:101CA000C86880B2704701617047416170470AB1EE
:101CB000016100E041617047C16070474FF48032BC
:101CC0000A4382618161826182698269704702464A
:101CD0000020434B18684FF68073184040EA02100A
:101CE00008433F4B186070473E49C8617047F0B5E4
:101CF0000A46002300240021002500F00046B6F12A
:101D0000004F02D1364EF16901E0354E7168C0F3E3
:101D1000034583B200F44016B6F5401F08D121F008
:101D200070612F4E766826F070662D4F7E6012E04F
:101D300000F48016B6F5801F06D1032606FA05F4D6
:101D4000A14341F0706106E0460D360103FA06F644
:101D5000B14341F0706122B1460D360103FA06F637
:101D6000314300F00046B6F1004F02D11C4EF16144
:101D700001E01B4E7160F0BD30B500228B071C0FD7
:101D80000F2303FA04F2164B08338C1053F8243057
:101D90009343134C08348D1044F8253023468C109F
:101DA00053F824308C07240F00FA04F423430C4C1E
:101DB00008348D1044F8253030BD0A49DC31086004
:101DC0007047000000080140000C01400010014075
:101DD0000014014000180140001C01400020014097
:101DE000000001400000204210B50446FB48844238
:101DF00009D10121880300F083FB00214FF48040CA
:101E000000F07EFB32E0F648844209D1012148040B
:101E100000F083FB00214FF4003000F07EFB25E052
:101E2000F048844209D10121880400F076FB0021AA
:101E30004FF4802000F071FB18E0EB48844209D198
:101E40000121C80400F069FB00214FF4002000F0DC
:101E500064FB0BE0E548844208D10121080500F04D
:101E60005CFB00214FF4801000F057FB10BD2DE902
:101E7000F04786B005460E460024A24600BFA146A4
:101E80000027B08900B100BF2F462C8A4CF6FF70A6
:101E90000440F08804432C82AC894EF6F3100440D1
:101EA000B08831890843718908430443AC81AC8A06
:101EB0004FF6FF400440B0890443AC8201A800F013
:101EC00098FAC648874202D1DDF810A001E0DDF89B
:101ED0000CA0A88900F4004040B10AEBCA0000EB56
:101EE0000A1031684900B0FBF1F807E00AEBCA00BC
:101EF00000EB0A1031688900B0FBF1F86420B8FBF0
:101F0000F0F004012009642101FB1089A88900F484
:101F1000004040B1322000EBC900B0FBF1F000F00E
:101F20000700044308E0322000EB09106421B0FBF5
:101F3000F1F000F00F0004432C8106B0BDE8F087FB
:101F40004FF41651016000218180C18001810C2174
:101F5000418100218181704710B502460020108A1E
:101F60004FF2FF0318400B884C8823438C8823438F
:101F7000CC8823431843108210BD0021018041808A
:101F80008180C180704721B1828942F400528281F0
:101F900004E082894DF6FF731A4082817047F0B5E4
:101FA0000346002400260025002040F66A17B942A7
:101FB00000D100BF1846C1F3421401F01F060127EB
:101FC00007FA06F5012C01D10C3004E0022C01D1F6
:101FD000103000E014301AB107682F43076002E0A8
:101FE0000768AF430760F0BD1AB1838A0B43838251
:101FF00002E0838A8B4383827047028A4FF6F07334
:102000001A400282028A0A430282704782894FF292
:10201000FF731A40828182890A438281704721B10D
:10202000828942F00202828104E082894FF6FD73C8
:102030001A4082817047028A4FF6DF731A4002828B
:10204000028A0A430282704721B1028A42F4804226
:10205000028204E0028A4BF6FF731A400282704744
:10206000C1F308028280704701468888C0F30800E7
:102070007047818941F0010181817047028BD2B2A2
:102080000283028B42EA012202837047028B02F430
:102090007F420283028B0A430283704721B1828A06
:1020A00042F02002828204E0828A4FF6DF731A40F7
:1020B0008282704721B1828A42F01002828204E05B
:1020C000828A4FF6EF731A408282704721B1828A6A
:1020D00042F00802828204E0828A4FF6F7731A40C7
:1020E0008282704721B1828942F40042828103E0FA
:1020F0008289C2F30E028281704721B1828A42F442
:102100000062828204E0828A4FF2FF731A40828268
:102110007047828A4FF6FB731A408282828A0A4392
:102120008282704721B1828A42F00202828204E0F8
:10213000828A4FF6FD731A40828270470246002061
:10214000B1F5007F00D100BF13880B400BB1012017
:1021500000E00020704701F40072B2F5007F00D16A
:1021600000BFCA430280704770B5024600240023B6
:102170000025002040F66A16B14200D100BFC1F32D
:10218000421501F01F03012606FA03F3012D02D1C7
:102190009689334006E0022D02D1168A334001E0D1
:1021A000968A33400C12012606FA04F4168834404D
:1021B00013B10CB1012000E0002070BD10B5002269
:1021C000002340F66A14A14200D100BF0A12012484
:1021D0009440A3B2DC43048010BD000000380140ED
:1021E0000044004000480040004C004000500040C7
:1021F000DF48006840F00100DD490860084640689B
:10220000DC490840DA49486008460068DA49084075
:10221000D74908600846006820F480200860084616
:10222000406820F4FE0048604FF41F00886070474B
:10223000CF49096821F48031CD4A116011460968FF
:1022400021F480211160B0F5803F03D0B0F5802FDC
:102250000ED106E0C649096841F48031C44A1160D4
:1022600007E0C349096841F4A021C14A116000E0B8
:1022700000BF00BF704710B50146002200230020B8
:102280004A11012A02D1BA4C236806E0022A02D17F
:10229000B74C236A01E0B64C636A01F01F020124C7
:1022A00094401C400CB1012000E0002010BD38B566
:1022B000002000900024002500BF3120FFF7DBFF45
:1022C00005460098401C00900098B0F5A06F01D022
:1022D000002DF2D03120FFF7CEFF08B1012400E03D
:1022E0000024204638BD01460020A14A106820F095
:1022F000F80040EAC10010607047A04908607047CC
:10230000024600209A4B586820F47C1042EA0103F0
:102310001843974B586070479849086670470146C4
:102320000020934A506820F0030008435060704733
:102330008F48406800F00C007047014600208C4A2E
:10234000506820F0F00008435060704701460020BC
:10235000874A506820F4E0600843506070470146A7
:102360000020834A506820F4605040EAC100506069
:10237000704729B17E4A527A02437D4B5A7204E07B
:102380007B4A527A82437A4B5A7270477B49D831E2
:102390000860704701460020754A506820F44040AC
:1023A0000843506070470021714A20321170704A12
:1023B00082F82010012802D004280AD104E001216B
:1023C0006B4A2032117005E00521694A20321170F4
:1023D00000E000BF00BF704769490860704764496A
:1023E000096A0143624A11627047654944390860CD
:1023F000704730B500210022002400235C4D6D6839
:1024000005F00C0121B1042905D0082923D105E0EC
:102410005C4D056022E05B4D05601FE0544D6D682A
:1024200005F47012524D6D6805F48034022505EBF9
:1024300092421CB9544D554305600BE04C4D6D68FC
:1024400005F400351DB1504D5543056002E04D4D7A
:102450005543056002E04B4D056000BF00BF444D91
:102460006D6805F0F0010909484D6B5C0568DD40B9
:1024700045603F4D6D6805F4E061090A434D6B5CB2
:102480004568DD4085603A4D6D6805F46051C90AC4
:102490003E4D6B5C4568DD40C560354D6D6805F4AB
:1024A0004041890B3A4D6B5CC568B5FBF3F505619E
:1024B00030BD29B12E4A526902432D4B5A6104E0C6
:1024C0002B4A526982432A4B5A61704729B1284AE4
:1024D00092690243264B9A6104E0254A926982433D
:1024E000234B9A61704729B1214AD2690243204B9C
:1024F000DA6104E01E4AD26982431D4BDA617047FB
:1025000029B11B4AD2680243194BDA6004E0184A29
:10251000D2688243164BDA60704729B1144A1269B7
:102520000243134B1A6104E0114A12698243104BB3
:102530001A61704712494039086070470F49C864F2
:1025400070470B49C87170470948406A40F0807075
:1025500007494862704701460020054A92680A40D0
:102560000AB1012000E000207047014988727047DD
:10257000001002400000FFF8FFFFF6FE000042429C
:102580008004424200127A0000093D001C00002035
:102590002C00002031490143314A1160704770B569
:1025A000002100230F22C47804B32D4C246804F4C6
:1025B000E064C4F5E064210AC1F10403CA40447830
:1025C00004FA03F18478144021430901254C06786C
:1025D000A155047804F01F050124AC4005786D1165
:1025E000AD0005F1E025C5F8004109E0047804F0EC
:1025F0001F050124AC401C4D0678761145F8264095
:1026000070BD1A4A0A400243154B1B1F1A607047DF
:1026100039B1134A121D12680243114B1B1D1A6077
:1026200006E00F4A121D126882430D4B1B1D1A60F3
:102630007047042808D14FF0E021096941F00401F6
:102640004FF0E022116107E04FF0E021096921F02D
:1026500004014FF0E0221161704700000000FA050C
:102660000CED00E000E400E080E100E080FFFF1FEF
:102670000648804706480047FEE7FEE7FEE7FEE71C
:10268000FEE7FEE7FEE7FEE7FEE7FEE7732700084A
:10269000310100080CB50020019000906C480068E2
:1026A00040F480306A49086000BF6948006800F45F
:1026B000003000900198401C0190009818B90198D2
:1026C000B0F5A06FF1D16248006800F4003010B19D
:1026D0000120009001E0002000900098012843D1E3
:1026E0005C48006840F010005A49086008460068DD
:1026F00020F0030008600846006840F0020008600F
:102700005348406852494860084640684860084657
:10271000406840F4806048600846406820F47C10BF
:1027200048600846406840F4E81048600846006881
:1027300040F08070086000BF4548006800F00070FD
:102740000028F9D04248406820F003004049486022
:102750000846406840F00200486000BF3C484068BE
:1027600000F00C000828F9D10CBD10B5FFF792FF5E
:1027700010BD10B53648006840F0010034490860CB
:1027800008464068344908403149486008460068B6
:10279000324908402E4908600846006820F480202D
:1027A00008600846406820F4FE0048604FF41F00AF
:1027B0008860FFF7DAFF4FF000602949086010BD1C
:1027C00010B5002100200022214B5B6803F00C01B2
:1027D00021B1042906D0082928D107E0214B224C39
:1027E000236027E01F4B204C236023E0184B5B68DD
:1027F00003F47010164B5B6803F48032022303EB82
:10280000904022B9194B4343174C23600DE0104B05
:102810005B6803F4003323B1144B4343124C236031
:1028200003E0104B4343104C236003E00D4B0E4C70
:10283000236000BF00BF064B5B68C3F303130C4C5F
:10284000E15C094B1B68CB40074C236010BD0000C6
:1028500000100240002002400000FFF8FFFFF6FEDB
:1028600008ED00E000127A003000002000093D0071
:102870003400002040EA01039B0703D009E008C9A7
:10288000121F08C0042AFAD203E011F8013B00F835
:10289000013B521EF9D27047D2B201E000F8012B81
:1028A000491EFBD270470022F6E710B513460A46D0
:1028B00004461946FFF7F0FF204610BD30B5054627
:1028C0002A460B4612F8010B13F8014B08B1A0423F
:1028D000F8D01CB1002802D06D1CF1E7284630BDAD
:1028E000CAB2401E10F8011F8A4202D00029F9D155
:1028F00000207047421C10F8011B0029FBD1801AF0
:10290000704770B5064600F0EFF8046805460A22E5
:102910000021304600F018F82C6070BD30B50B4631
:10292000014600202022012409E021FA02F59D42FF
:1029300005D303FA02F5491B04FA02F52844151ED3
:10294000A2F10102F1DC30BD2DE9F04791460F46BE
:1029500080460446002614F8015B2DB100F03EF8D5
:102960000068405DC007F6D12B2D02D02D2D18D068
:10297000641E4A463946204600F034F827B13968CB
:10298000A14201D1C7F8008071054FF002040BD5B8
:102990004042002803DD00F0A7F80460A007BDE86E
:1029A000F08746F48066E4E70028F8DA00F09CF847
:1029B00004606FF00040F2E7064C074D06E0E06867
:1029C00040F0010394E8070098471034AC42F6D376
:1029D000FDF7B2FB582D0008782D0008004870471D
:1029E000542D00082DE9F05F824600780027154637
:1029F0008B460AF10104B946302801D09DB113E09D
:102A000014F8010B0127782803D0582801D045B1CC
:102A10000AE00DB1102D07D10027102514F8010B85
:102A200002E0082500E00A250026B0460EE005FB7E
:102A3000080005FB06F1012701EB10461FFA80F89C
:102A4000B6F5803F00D3B94614F8010B294600F0D3
:102A500018F80028EBDABBF1000F05D00FB1641EA7
:102A600000E05446CBF80040B9F1000F06D000F06A
:102A70003BF802210160C81EBDE8F09F48EA06400D
:102A8000FAE73A2800D2303820F02002412A01D358
:102A9000A2F13700884201D34FF0FF3070470000A9
:102AA0000FB4054B10B503A9044A029800F030F8A2
:102AB00010BC5DF814FB00008B0200080000002031
:102AC0000FB4084B10B504A902AA039800F020F82F
:102AD000044602A9002000F0F7F8204610BC5DF87B
:102AE00014FB0000C92C0008004870474400002077
:102AF00002E008C8121F08C1002AFAD170477047C7
:102B0000002001E001C1121F002AFBD17047000024
:102B10002DE9FF4F8BB09A460F460546002606E08A
:102B200025280BD052460D9990476D1C761C2878AD
:102B30000028F5D10FB03046BDE8F08F0024A04644
:102B40000122604900E0044315F8013F203B02FAEE
:102B500003F00842F7D128782E2817D115F8010F75
:102B600044F004042A280ED06FF02F022878A0F138
:102B7000300109290AD808EB880102EB410100EB7A
:102B800001086D1CF2E757F8048B6D1C2878692842
:102B90003ED006DC0028CDD063280BD0642804D1B9
:102BA00036E0732810D075284BD052460D999047C7
:102BB000761C85E017F8040B8DF8000000208DF8D6
:102BC0000100E946012003E057F8049B4FF0FF3075
:102BD00061074FF0000401D40AE0641C44450DDA9B
:102BE0008442FADB19F804100029F6D106E0641CCF
:102BF0008442FCDB19F804100029F8D1264404E0D3
:102C000019F8010B52460D999047641EF8D257E00F
:102C100001CF4FF00A0B002802DA40422D2102E0DA
:102C2000210504D52B218DF82410012103E0E107B3
:102C300005D02021F7E70DF1200908910CE00021D3
:102C4000F9E701CF4FF00A0BF9E75946FFF766FEA7
:102C500001F1300209F8012D0028F6D1ADEB090091
:102C600000F1200B600701D44FF00108D84502DDC8
:102C7000A8EB0B0000E000208046002406E009A835
:102C80005246005D0D999047641C761C089884425A
:102C9000F5DB04E0302052460D999047761CB8F1E0
:102CA0000001A8F10108F5DC05E019F8010B524616
:102CB0000D999047761CBBF10001ABF1010BF4DCE0
:102CC0006D1C34E7092801000A68531C0B60107062
:102CD00070470040404040404040404041414141F9
:102CE00041404040404040404040404040404040E3
:102CF00040404005020202020202020202020202F7
:102D00000202022020202020202020202002020277
:102D100002020202909090909090101010101010EB
:102D200010101010101010101010101010100202BF
:102D3000020202028888888888880808080808082B
:102D4000080808080808080808080808080802020F
:102D500002024000D32C0008782D0008000000205B
:102D600048000000F02A0008C02D0008480000209C
:102D700060080000002B00080000000000000000B8
:102D80000000000000000000000000000000000043
:102D9000000000000000000001020304010203041F
:102DA000060708090204060800A24A040000000001
:102DB00000000000010203040607080900000000EB
:0400000508000131BD
:00000001FF
