:020000040800F2
:10000000280D002091010008990100089B010008BB
:100010009D0100089F010008A101000800000000E8
:10002000000000000000000000000000A301000824
:10003000A501000800000000A7010008A9010008B0
:10004000AB010008AB010008AB010008AB010008E0
:10005000AB010008AB010008AB010008AB010008D0
:10006000AB010008AB010008AB010008AB010008C0
:10007000AB010008AB010008AB010008AB010008B0
:10008000AB010008AB010008AB010008AB010008A0
:10009000AB010008AB010008AB010008AB01000890
:1000A000AB010008AB010008AB010008AB01000880
:1000B000AB010008AB010008AB010008AB01000870
:1000C000AB010008AB010008AB010008AB01000860
:1000D000AB010008AB010008AB010008AB01000850
:1000E000AB010008AB010008AB010008AB01000840
:1000F000AB01000800F002F800F03AF80AA090E81E
:10010000000C82448344AAF10107DA4501D100F0D2
:100110002FF8AFF2090EBAE80F0013F0010F18BF65
:10012000FB1A43F001031847403700006037000016
:10013000103A24BF78C878C1FAD8520724BF30C813
:1001400030C144BF04680C607047000000230024E5
:1001500000250026103A28BF78C1FBD8520728BFD7
:1001600030C148BF0B6070471FB51FBD10B510BD33
:1001700002F084FC1146FFF7F7FF00F00DFD02F0DE
:10018000A2FC03B4FFF7F2FF03BC02F0A9FC0000DD
:100190000948804709480047FEE7FEE7FEE7FEE71B
:1001A000FEE7FEE7FEE7FEE7FEE7FEE70448054957
:1001B000054A064B70470000AF0C0008F500000828
:1001C00028070020280D00202809002028090020E9
:1001D00010B504468548844208D10121084600F044
:1001E000BCFA0021012000F0B8FA52E080488442B5
:1001F00008D10121022000F0B0FA0021022000F015
:10020000ACFA46E07B48844208D10121042000F08A
:10021000A4FA0021042000F0A0FA3AE076488442D3
:1002200008D10121082000F098FA0021082000F0F0
:1002300094FA2EE07148844208D10121102000F088
:100240008CFA0021102000F088FA22E06C488442E9
:1002500008D10121402000F080FA0021402000F068
:100260007CFA16E06748844208D10121802000F022
:1002700074FA0021802000F070FA0AE0624884429B
:1002800007D10121202000F068FA0021202000F091
:1002900064FA10BDF0B50A4600210023002400BF17
:1002A0003DE0012505FA01F3156805EA03049C42C7
:1002B00034D105684F000326BE40B543056015796B
:1002C0004E00B5400668354305601579012D02D012
:1002D0001579022D16D185684F000326BE40B5431F
:1002E000856055794E00B5408668354385608588C0
:1002F00001268E40B5438580858896798E40B6B2BA
:1003000035438580C5684F000326BE40B543C560B0
:10031000D5794E00B540C6683543C560491C1029E3
:10032000BFD3F0BD4FF6FF71016000210171417133
:100330008171C171704708B54FF480320092009A04
:100340000A430092009AC261C161009AC261C26907
:100350000092C269009208BD02460020138A0B4039
:100360000BB1012000E0002070470146088A704769
:1003700002460020938A0B400BB1012000E00020D0
:1003800070470146888A70470183704741837047F0
:100390000AB1018300E04183704781827047828AFD
:1003A0004A4082827047F0B5002300244D07ED0ECD
:1003B00002FA05F3CE1000F1200555F826504E073D
:1003C000F70E0F26BE40B543CF1000F1200646F8C9
:1003D0002750CE1000F1200555F8265045EA0304B9
:1003E000CE1000F1200545F82640F0BD0000024087
:1003F0000004024000080240000C024000100240CD
:1004000000180240001C024000140240F948006835
:1004100040F48070F7490860F64808300068F649F3
:100420000840F44908310860F2480068F349084080
:10043000F04908600846006820F480200860ED4814
:100440000830006820F47D00EA4908310860002087
:10045000091D086070470021E64A921C1170114680
:100460000870704710B501460022002300204A1191
:10047000012A02D1DF4C236802E0DE4C34342368C9
:1004800001F01F02012494401C400CB1012000E047
:10049000002010BD38B5002000900024002500BFCA
:1004A0003120FFF7DFFF05460098401C00900098C0
:1004B000B0F5A06F01D0002DF2D03120FFF7D2FFB0
:1004C00008B1012400E00024204638BDC949C91DF7
:1004D0000870704701460020C64A121D106820F4BB
:1004E0006040084310607047C54908627047014684
:1004F0000020C04A121D106820F4F85040EA012084
:1005000010607047BE49086070470021B94A353213
:100510001170114608707047BA490860704710B5ED
:1005200041EA02030343B34C0A34237010BDB449BB
:1005300008667047B24908677047B2492C310860B5
:10054000704740EA0102AB4B0B331A70704701460B
:100550000020A84A0832106820F003000843106009
:100560007047A4480830006800F00C00704701464E
:100570000020A04A0832106820F0F0000843106004
:100580007047014600209B4A0832106820F4E06062
:1005900008431060704701460020964A08321068F0
:1005A00020F4605040EAC10010607047F0B50021AF
:1005B000002200230026002400258E4F08373F68C4
:1005C00007F00C0131B1042912D0082913D00C29ED
:1005D00037D113E0874F3F1D3F68C7F342356F1C8B
:1005E0004FF0010C0CFA07FC4FEACC37076036E0FD
:1005F000854F076033E0854F076030E07D4F083757
:100600003F6807F470127B4F08373F6807F44003D8
:100610007F4F07EB92473A78012707EB9353754FCB
:1006200008373F6807F480362EB9774F5743B7FB3A
:10063000F3F7076004E0754F5743B7FBF3F7076024
:100640000DE06C4F3F1D3F68C7F342356F1C4FF004
:10065000010C0CFA07FC4FEACC37076000BF00BF63
:10066000644F08373F6807F0F0010909694F7C5C67
:100670000768E74047605F4F08373F6807F4E0616D
:10068000090A644F7C5C4768E7408760594F083728
:100690003F6807F46051C90A5E4F7C5C4768E740D9
:1006A000C760F0BD002100F44032B2F5403F08D1F0
:1006B000504A116821F0C04100F0C04211434D4A38
:1006C00011604C4A3432126822F44032494B3433C0
:1006D0001A601A46126800F440331A43454B34330B
:1006E0001A607047474958310860704745495C3186
:1006F0000860704739B13F4A1C32126802433D4BD3
:100700001C331A6006E03B4A1C3212688243394BA4
:100710001C331A60704739B1364A203212680243DE
:10072000344B20331A6006E0324A2032126882438A
:10073000304B20331A60704739B12E4A2432126888
:1007400002432C4B24331A6006E02A4A24321268F2
:100750008243284B24331A60704739B1254A10323E
:1007600012680243234B10331A6006E0214A10320C
:10077000126882431F4B10331A60704739B11D4A0B
:100780001432126802431B4B14331A6006E0194AF4
:10079000143212688243174B14331A60704739B110
:1007A000144A183212680243124B18331A6006E0DA
:1007B000104A1832126882430E4B18331A60704781
:1007C00039B10C4A2832126802430A4B28331A60A6
:1007D00006E0084A283212688243064B28331A6022
:1007E0007047C9B1034A2C3212680243014B2C33C3
:1007F0001A6016E0003802400CC0FF88FEFFFEEED3
:1008000000004742800647420024F40000127A00AC
:1008100000000020090000201F4A126882431E4B7E
:100820001A60704739B11C4A121D126802431A4BF4
:100830001B1D1A6006E0184A121D12688243164BEF
:100840001B1D1A60704739B1134A1F3A12780243D0
:10085000114B1F3B1A7006E00F4A1F3A1278824371
:100860000D4B1F3B1A7070470B480830006840F072
:100870008070094908310860704701460020064A27
:10088000203A12680A400AB1012000E000207047B7
:1008900001491E39087070472C38024010B50446D3
:1008A000BA48844208D101218014FFF767FF002174
:1008B000A014FFF763FF16E0B548844208D1012178
:1008C0000014FFF76CFF00212014FFF768FF0AE017
:1008D000B048844207D10121C013FFF760FF002117
:1008E000E013FFF75CFF10BD10B50022028802F490
:1008F00041520B884C8823438C882343CC88234364
:100900000C8923434C8923438C892343CC8923437B
:100910001A430280838B4FF2FF74234083830B8A38
:10092000038210BD2DE9FF5F05460C464FF000091C
:1009300002274FF000084FF0010B0026B246A88BAB
:100940004FF240010840A88302202884B5F81C908B
:10095000A068022801D100BF33E0A08810B94FF091
:10096000010B01E04FF0020B6846FFF71FFEDDF8B8
:1009700000A0E088B0F5007F0AD14FEA1A2000EB12
:1009800080004000A168B0FBF1F0401D86B20BE092
:100990004FEA4B10BAFBF0F000EB80004000A1687A
:1009A000B0FBF1F0401D86B20A20B6FBF0F606F06F
:1009B0000108A6EB0800C0F34F074FF6FF7000EAEE
:1009C0000828022F01DBFF2F02DD02274FF000086D
:1009D000E08840EA080038432884A088A1890843B9
:1009E000618808432188084340F4006040EA09090F
:1009F000A5F81C90BDE8FF9F002101804180818007
:100A0000C180018141818181C181072101827047BB
:100A10000021018041808180C1800221816000210C
:100A20008181704721B1028842F04002028004E0D7
:100A300002884FF6BF731A400280704721B1828B43
:100A400042F48062828304E0828B4FF6FF331A40C7
:100A50008283704702884FF2FF731A400280028837
:100A60000A4302807047B1F5804F04D1028842F4F6
:100A70008042028004E002884BF6FF731A40028035
:100A800070474FF6FF62914204D0028842F48072B0
:100A9000028004E002884FF6FF631A40028070472C
:100AA00021B1828842F00402828004E082884FF6FD
:100AB000FB731A40828070470146888970478181A4
:100AC000704721B1028842F40052028004E002889B
:100AD0004DF6FF731A4002807047018841F480513F
:100AE0000180704702460020012901D0108B00E0F0
:100AF000908A70470146088A70471AB183880B4371
:100B0000838002E083888B438380704730B5002464
:100B100000230C110125A540ABB21AB185881D43F5
:100B2000858002E085889D43858030BD0246002097
:100B300013890B400BB1012000E000207047CA432D
:100B400002817047F0B502460020002400230025F2
:100B500001F00F070126BE40B4B20B1101269E40E2
:100B6000B3B2968806EA03051689264016B10DB180
:100B7000012000E00020F0BD10B5002201F00F04BC
:100B80000123A3409AB2D343038110BD003001403A
:100B900000380040003C004000F032F901F0FCFD5C
:100BA00001F01AFE01E001F02EFAFCE70CB500207E
:100BB000019000908748006840F4803085490860C3
:100BC00000BF8448006800F4003000900198401C89
:100BD0000190009818B90198B0F5A06FF1D17D4847
:100BE000006800F4003010B10120009001E0002006
:100BF00000900098012859D17748006840F004001F
:100C0000754908600846006840F002000860084620
:100C1000006840F0010008606E482430006840F031
:100C200080506C4924310860C8146C49086000BFCA
:100C30006A48406800F010000028F9D16548083083
:100C40000068644908310860084600680860084682
:100C5000006808600846006820F47D0008600846C7
:100C6000006840F49A0008605A48006840F08070BC
:100C70005849086000BF5748006800F0007000281D
:100C8000F9D054480830006820F003005149083179
:100C900008600846006840F00300086000BF4D4847
:100CA0000830006800F00C000C28F8D10CBD10B51D
:100CB0004848006840F4807046490860454808305C
:100CC00000684749084043490831086041480068C6
:100CD000444908403F4908600846006820F48020E5
:100CE00008603C480830006820F47D00394908312C
:100CF00008600020091D0860FFF758FF4FF00060F2
:100D00003949086010BD70B5002200200021002480
:100D10000023304D08352D6805F00C0232B1042A4D
:100D200010D0082A12D00C2A39D113E0294D2D1DDC
:100D30002D68C5F342335D1C0126AE40F5032B4EF2
:100D4000356038E02A4D294E356034E0294D274E74
:100D5000356030E01F4D08352D6805F470101D4DCD
:100D600008352D6805F44001234D05EB90452878A2
:100D7000012505EB9151174D08352D6805F4803498
:100D800034B91B4D4543B5FBF1F5184E356005E010
:100D9000184D4543B5FBF1F5144E35600BE00D4D94
:100DA0002D1D2D68C5F342335D1C0126AE40F503B1
:100DB0000E4E356000BF00BF064D08352D68C5F3E7
:100DC00003150E4E725D094D2D68D540074E3560F6
:100DD00070BD000000380240003C0240007000403E
:100DE0000CC0FF88FEFFFEEE08ED00E01C000020B6
:100DF0000024F40000127A002000002029000020C6
:100E000000B587B001210846FFF774FC01208DF87A
:100E1000180000208DF81A0001208DF81B00022018
:100E20008DF819001020059005A94A48FFF732FAFD
:100E300010214848FFF7A8FA02208DF8180000207A
:100E40008DF81A0001208DF81B0002208DF8190082
:100E5000E020059005A93F48FFF71CFAE0213D4836
:100E6000FFF792FA052204213A48FFF79CFA05227F
:100E700011463848FFF797FA052206213548FFF753
:100E800092FA052207213348FFF78DFA0121080362
:100E9000FFF741FC0020ADF800004FF48270ADF880
:100EA00002000020ADF80400ADF80600ADF808001F
:100EB0004FF40070ADF80A001020ADF80C000020CF
:100EC000ADF80E000720ADF8100069462248FFF784
:100ED0000BFD01212048FFF7A5FD07B000BD00F084
:100EE00007001D4909884FF6C77211401A4A118040
:100EF0001146098841EAC00111801146098841F074
:100F00004001118070470246002107E0481C81B271
:100F10004FF6FE70814201DB002070470E480089C9
:100F200000F002000028F1D00B488281002107E088
:100F3000481C81B24FF6FE70814201DB0020ECE7D5
:100F40000548008900F001000028F1D0024880899E
:100F5000C0B2E2E7000002400030014070B5054633
:100F60000C460026FE48808A20F01000FC4988824A
:100F700004F01F0040EA05063046FFF7C4FFFF20DB
:100F8000FFF7C1FF064604F0800018B1FF20FFF70D
:100F9000BAFF0646F248808A40F01000F049888285
:100FA000304670BD2DE9F04104460D461646002737
:100FB000EB48808A20F01000E949888205F01F0084
:100FC00040EA04073846FFF79EFF37463846FFF7EA
:100FD0009AFFE348808A40F01000E1498882BDE82A
:100FE000F08170B505460C46DD48808A20F010007F
:100FF000DB4988823A20FFF786FF05E06D1E00205E
:10100000FFF781FF2070641C002DF7D100202070B5
:10101000D348808A40F01000D149888270BD70B5F5
:1010200004460D46CE48808A20F01000CC498882C4
:101030007A20FFF768FF04E0641E2878FFF763FF5B
:101040006D1C002CF8D1C648808A40F01000C449BD
:10105000888270BD10B5044604F06000C14909786B
:1010600088420ED003221F21A020FFF79BFFC4F36C
:1010700041121F218020FFF795FF04F06000B9495D
:10108000087010BD10B504462046FFF7E3FF214667
:101090000020FFF763FF10BD70B504460D462046E3
:1010A000FFF7D8FF2A4621464020FFF77BFF70BD9F
:1010B00070B505460C462946D420FFF7EDFFE1B296
:1010C000D620FFF7E9FFC4F30721D720FFF7E4FF9D
:1010D00004E000BF00BF00BF00BF00BFEA20FFF771
:1010E000D1FF00F001000028F3D170BD10B5044617
:1010F00004F007017520FFF7CFFF10BD70B504465F
:1011000000259748808A40F0100095498882FF2288
:1011100000211046FFF746FF01E0681C85B21D2044
:10112000FFF7B0FF00F0010010B9B5F5FA7FF4DB6E
:10113000B5F5FA7F01DB012070BD00208A49086007
:1011400000210820FFF7A8FF00210920FFF7A4FFD6
:1011500000210C20FFF7A0FF00210D20FFF79CFFCE
:10116000FE210A20FFF798FF19210B20FFF794FFBB
:10117000FF210420FFF790FF19210520FFF78CFFC6
:10118000FF210620FFF788FF1F210720FFF784FFBC
:10119000B0213820FFF780FF3F212820FFF77CFF98
:1011A00030212920FFF778FFF9213020FFF774FF65
:1011B000F7213120FFF770FF0D21C020FFF76CFFF2
:1011C0000021C120FFF768FF3322C2218020FFF7F2
:1011D000E9FE1221C620FFF75FFF0C21C720FFF7B1
:1011E0005BFF1521C420FFF757FFDC21CA20FFF762
:1011F00053FF0521CB20FFF74FFF2178E420FFF7B5
:101200004BFF6178E520FFF747FFA178E220FFF769
:1012100043FFE178E320FFF73FFF2179E020FFF76C
:101220003BFF6179E120FFF737FF4FF48071002029
:10123000FFF73EFF4FF480711020FFF739FF1F20AA
:10124000FFF708FFC0221B218020FFF7ABFE04221E
:101250001F218020FFF7A6FEE420FFF713FF21786F
:10126000884201D1002067E7012065E710B57220B0
:10127000FFF708FF10BD70B504460D46FF210220A0
:10128000FFF70AFF19210320FFF706FFFF20204484
:10129000C1B20620FFF700FF41F6FF102044C0F363
:1012A00007210720FFF7F8FE002211467A20FFF7FA
:1012B00079FE29462046FFF7B2FE08221F21802032
:1012C000FFF770FE1C20FFF7DDFE00F0020020B1EA
:1012D00008221F21A020FFF765FE70BD2DE9F04117
:1012E00005460F463920FFF7CDFE10B90020BDE8B6
:1012F000F0811D4801780020FFF7CEFE1A480088D3
:10130000C0F307210120FFF7C7FE00213A20FFF7B5
:1013100025FE1549086000213A20FFF71FFE1249FB
:10132000096841EA00201049086000213A20FFF7CF
:1013300015FE044600213A20FFF710FE44EA00247F
:10134000241F00213A20FFF709FE064600213A201B
:10135000FFF704FE46EA0026681EA04207D205E019
:10136000000002403C000020400000206C1E06F0FF
:10137000800008B9002403E039462046FFF731FE1B
:10138000094801780C20FFF787FE07480088C0F362
:1013900007210D20FFF780FE40221E218020FFF74D
:1013A00001FE2046A3E700004000002030B50446BF
:1013B0000B460021012A03D11131A3F10800014499
:1013C000022A03D1891DA3F10800014406E06078D8
:1013D000257840EA05200144A41C9B1E012BF6D869
:1013E00013B1207801EB002102E088B200EB11413B
:1013F000080C0028F9D14FF6FF7581EA050030BDD1
:1014000030B503460020FE4C227004E00C5CFD4D1C
:101410002C54441CE0B20428F8DB002004E01C5CDF
:10142000F94D2C54441CE0B20628F8DB30BD10B551
:1014300002460B460021292B01D2002010BD107B53
:10144000082802D1507B062801D00020F6E70AE0E8
:1014500001F12600105CEB4C645CA04201D000203E
:10146000ECE7481CC1B20429F2DB0120E6E710B525
:1014700002460B4600212A2B01D2002010BD107B12
:10148000082801D1507B08B10020F7E7907B452860
:1014900001D00020F2E70AE001F11E00105CD94CF7
:1014A000645CA04201D00020E8E7481CC1B20429D6
:1014B000F2DB0120E2E70146002008E0821D8A5CA1
:1014C0000A54D14A135C821D8B54421CD0B20628A8
:1014D000F4DB704730B5044600202076607640206B
:1014E0002075002060754020A0750022142104F1B1
:1014F0000E00FFF75BFF0546280A2076657630BDB3
:1015000030B5054600240BE004F11A00295C001DEB
:101510002954BC48015D04F11A002954601CC4B26E
:10152000042CF1DB2846FFF7D5FF30BDF0B50C46A3
:10153000002109E001F12206875DB61C87550027CE
:10154000B61E87554E1CF1B20229F3DBAC4E36783D
:1015500080F82360042112E001F12506865D344401
:1015600001F12906855D845513B1361F855503E0C9
:10157000002701F125068755240A4E1EF1B20029E5
:10158000EADC73B9002600F8266F46709F4E367865
:1015900086700026C67026389C4E3678B61C9B4F47
:1015A0003E70002680F8326080F8336062B1022617
:1015B0002E30067204264672052686728026C67272
:1015C000602600F82E6902E0502680F82E60F0BDFB
:1015D00070B5054600242846FFF76DFF00202875EA
:1015E000022068750BE004F11600295C0A302954CA
:1015F0008548015D04F116002954601CC4B2062C14
:10160000F1DB00240BE004F11C00295C0A302954B2
:101610007C48015D04F11C002954601CC4B2042CF8
:10162000F1DB29462A20FFF726FE70BD70B504467F
:101630000D462046FFF73FFF2046FFF761FF0020E1
:1016400084F8220094F82400F72804DD94F825009B
:10165000401C84F8250094F82400083084F8240005
:1016600021462846FFF707FE70BD2DE9F0470446E6
:10167000894615461F4600262046FFF71CFF05F148
:101680001C06300A207466742046FFF739FF380ABA
:1016900004F8240F6770280AA07005F10800E070B4
:1016A000002020716071243C05E019F8061006F155
:1016B0002A002154761CAE42F7D305F11001012215
:1016C00004F11A00FFF772FE80464FEA182084F8F2
:1016D000280084F8298005F12A002146FFF7CBFD78
:1016E000BDE8F08770B504462046FFF7E4FE002011
:1016F00020742C2060742046FFF702FF122084F82B
:101700002F000023012211462046FFF70FFF02227F
:10171000202104F11A00FFF749FE0546280A84F843
:10172000320084F8335021463A20FFF7A4FD70BD03
:101730003748006818B137480068223070470020E9
:10174000FCE7027C417C62F31F21314A11601146A3
:1017500009681439116090F82E10091189002D4A7A
:1017600011602B4909681268891A294A11601146CB
:10177000096809B900211160704710B5034603E0FC
:1017800001F136001C54491C12F8014B002CF7D112
:10179000084610BD10B5034605E0147801F1360087
:1017A0001C54491C521C10780028F6D1084610BD64
:1017B00070B504462046FFF77EFE102084F82F0007
:1017C0001348006830B90123002219462046FFF76C
:1017D000ADFE06E0012300220D4801682046FFF718
:1017E000A5FE2825280A207465742046FFF788FE88
:1017F00002221C2104F11A00FFF7D8FD05460BE078
:10180000440000204B00002045000020580000202C
:101810005400002050000020280A84F8320084F888
:10182000335021463620FFF726FD70BD70B50446C3
:101830000D46192084F82F0005F12806300A20747F
:1018400066742046FFF746FE002084F8320084F8D4
:10185000330005F11C01022204F11A00FFF7A6FD76
:101860000646300A84F8320084F8336005F1360009
:101870002146FFF700FD70BD10B504460522214644
:10188000C24801F0ADF808B9012010BD0020FCE706
:1018900070B5044600252046FFF7EEFF08B9FF208B
:1018A00070BD07E020782F2801D1641C0CE0681C73
:1018B000C5B2641C207838B10A2D05DA20782C28AE
:1018C00002DD20787B28EDDB00BF20783A2806DA9D
:1018D00020782F2803DD20783038C0B2E0E7FE20E2
:1018E000DEE72DE9F04786B00646884691469A46DF
:1018F0000E9FA7A200213046FFF73FFF0546B4A286
:1019000029463046FFF739FF0546BAA22946304638
:10191000FFF733FF0546BE4A29463046FFF72DFF45
:101920000546BC4A29463046FFF727FF0546BA4A16
:1019300029463046FFF721FF0546B8A22946304622
:10194000FFF71BFF0546BAA229463046FFF722FFE4
:101950000546B9A229463046FFF71CFF0546BAA244
:1019600029463046FFF716FF0546B948007831286A
:101970000CD1B8A229463046FFF7FFFE0546BEA2AD
:1019800029463046FFF7F9FE05461AE0B0480078D0
:10199000352801D1012000E00020AD49097809B9BE
:1019A000012100E00021084358B1C1A22946304678
:1019B000FFF7E3FE0546C7A229463046FFF7DDFEE6
:1019C000054696A229463046FFF7D7FE054698A25F
:1019D00029463046FFF7DEFE054697A229463046E7
:1019E000FFF7D8FE054698A229463046FFF7D2FEFB
:1019F0000546C248007832280CD1C1A2294630469B
:101A0000FFF7BBFE0546C7A229463046FFF7B5FEE5
:101A100005461AE0B9480078362801D1012000E0D7
:101A20000020B649097809B9012100E000210843E6
:101A300058B1CAA229463046FFF79FFE0546D0A2FC
:101A400029463046FFF799FE054674A229463046DE
:101A5000FFF793FE054676A229463046FFF79AFE29
:101A6000054675A229463046FFF794FE054676A244
:101A700029463046FFF78EFE0546CB4800783328CE
:101A80000CD1CAA229463046FFF777FE0546D0A200
:101A900029463046FFF771FE05461AE0C248007835
:101AA000372801D1012000E00020BF49097809B999
:101AB000012100E00021084358B1D3A22946304655
:101AC000FFF75BFE0546D9A229463046FFF755FED3
:101AD000054652A229463046FFF74FFE054654A25E
:101AE00029463046FFF756FE054653A229463046A2
:101AF000FFF750FE054654A229463046FFF74AFE3E
:101B00000546D448007834280CD1D3A22946304663
:101B1000FFF733FE0546D9A229463046FFF72DFED2
:101B200005461AE0CB480078382801D1012000E0B2
:101B30000020C849097809B9012100E000210843C3
:101B400058B1DCA229463046FFF717FE0546E2A24F
:101B500029463046FFF711FE0546E9A229463046E0
:101B6000FFF70BFE0546F34A29463046FFF705FE10
:101B70000546F1A229463046FFF7FFFD0546F3A2D0
:101B800029463046FFF7F9FD0546FFE1BD0000207C
:101B9000485454502F312E3020323030204F4B0DCE
:101BA0000A436F6E74656E742D547970653A2074B3
:101BB0006578742F68746D6C0D0A507261676D6181
:101BC0003A206E6F2D63616368650D0A0D0A00008F
:101BD0003C4D45544120485454502D45515549568B
:101BE0003D5265667265736820636F6E74656E74CE
:101BF0003D353E003C666F726D20616374696F6EA7
:101C00003D2F206D6574686F643D6765743E00000C
:101C10001437000840360008E43500083C703E3CAC
:101C200063656E7465723E3C6120687265663D0056
:101C3000687474703A2F2F003139322E3136382EB5
:101C4000312E3130380000002F3F6C65643D0000BC
:101C50007F000020353E3C666F6E742073697A65A4
:101C60003D353EB9D8B1D54C4544313A3C2F666F2D
:101C70006E743E3C2F613E003C666F6E742073694B
:101C80007A653D3520636F6C6F723D22233030469C
:101C9000463030223E20204C454431C1C13C2F66A5
:101CA0006F6E743E3C2F63656E7465723E0000007B
:101CB000313E3C666F6E742073697A653D353EB582
:101CC000E3C1C14C4544313A3C2F666F6E743E3CD3
:101CD0002F613E003C666F6E742073697A653D35F6
:101CE0003E20204C454431C3F03C2F666F6E743E5D
:101CF0003C2F63656E7465723E000000800000201A
:101D0000363E3C666F6E742073697A653D353EB928
:101D1000D8B1D54C4544323A3C2F666F6E743E3C88
:101D20002F613E003C666F6E742073697A653D35A5
:101D300020636F6C6F723D22233030464630302274
:101D40003E20204C454432C1C13C2F666F6E743E2C
:101D50003C2F63656E7465723E000000323E3C6647
:101D60006F6E742073697A653D353EB5E3C1C14C31
:101D70004544323A3C2F666F6E743E3C2F613E0004
:101D80003C666F6E742073697A653D353E20204C49
:101D9000454432C3F03C2F666F6E743E3C2F636542
:101DA0006E7465723E00000081000020373E3C6684
:101DB0006F6E742073697A653D353EB9D8B1D54CE4
:101DC0004544333A3C2F666F6E743E3C2F613E00B3
:101DD0003C666F6E742073697A653D3520636F6C65
:101DE0006F723D2223303046463030223E20204C58
:101DF000454433C1C13C2F666F6E743E3C2F636512
:101E00006E7465723E000000333E3C666F6E742057
:101E100073697A653D353EB5E3C1C14C4544333AFB
:101E20003C2F666F6E743E3C2F613E003C666F6EC9
:101E3000742073697A653D353E20204C454433C398
:101E4000F03C2F666F6E743E3C2F63656E74657256
:101E50003E00000082000020383E3C666F6E742019
:101E600073697A653D353EB9D8B1D54C4544343AAD
:101E70003C2F666F6E743E3C2F613E003C666F6E79
:101E8000742073697A653D3520636F6C6F723D22F3
:101E900023303046463030223E20204C454434C169
:101EA000C13C2F666F6E743E3C2F63656E74657225
:101EB0003E000000343E3C666F6E742073697A65A4
:101EC0003D353EB5E3C1C14C4544343A3C2F666FC5
:101ED0006E743E3C2F613E003C666F6E74207369E9
:101EE0007A653D353E20204C454434C3F03C2F6696
:101EF0006F6E743E3C2F63656E7465723E00000029
:101F00003C666F6E742073697A653D353E3C63654F
:101F10006E746572203E2053544D3332C4DAB2BF22
:101F2000CEC2B6C8B4ABB8D0C6F7CEC2B6C8A3BA94
:101F300020000000A2000020A1E3433C2F63656E57
:101F40007465723E3C2F666F6E743E003C666F6E29
:101F5000742073697A653D3520636F6C6F723D2222
:101F600023666636363030223E3C63656E74657299
:101F70003E3C68723E203C62723ED3EED4CBB5E765
:101F8000D7D33C2F63656E7465723E00EF4A2946D5
:101F90003046FFF7F2FB0546ED4A29463046FFF78B
:101FA000ECFB0546EBA229463046FFF7E6FB05466B
:101FB000F34A29463046FFF7E0FB0546F1A22946E1
:101FC0003046FFF7DAFB0546002404E0F448005DE4
:101FD00001A90855641C112CF8D301AA29463046E2
:101FE000FFF7CBFB0546EFA229463046FFF7C5FBBE
:101FF0000546F1A229463046FFF7BFFB05462846B5
:1020000006B0BDE8F08708B50027B846EC48008860
:1020100040F40070EA4908800846008840F08000DB
:1020200008800846008840F0400008800846008884
:1020300040F020000880FFF719F98146E148FFF7DA
:102040005DF8E1480278E149DE48FFF7D9F940F24E
:1020500076411420FFF72CF80220FFF747F8FBE247
:10206000DB4800F075FCDA480088642190FBF1F051
:10207000D849085CD8490870D5480088642190FB8D
:10208000F1F201FB12000A2190FBF1F0D149085C4A
:10209000D14948702E208870CD4800880A2190FBD5
:1020A000F1F201FB1200CB49085CCB49C8704FF03C
:1020B0000009CA4940F2DC50FFF710F98146B9F136
:1020C000000F00D1C8E24946C448FFF7B0F918B183
:1020D000C248FFF77DFABFE24946C048FFF7C7F99B
:1020E00000B9B9E2BD48C07D012878D1BB4890F85D
:1020F0002200082873D14946B848FFF797FA002410
:1021000026E0B648005DB6490855085DC11700EBEA
:1021100011710911B34A525C04EB4401A04B5A54AB
:10212000AF49085DC11700EB11710911A0EB011156
:10213000AC4A525C04EB4401491C5A54052C05DAA4
:102140002D2104EB4400801C1A461154601CC4B2BB
:10215000062CD6DB00243EE0A04904F11E00085CFA
:10216000A14908550846005D642190FBF1F09949AA
:10217000085C002101EB8401814A50549A48005DBB
:10218000642190FBF1F201FB12000A2190FBF1F0B7
:102190009049085C012101EB8401794A505492482E
:1021A000005D642190FBF1F201FB12000A2190FB1B
:1021B000F1F201FB12008749085C022101EB840166
:1021C0006F4A5054032C04DA2E20032101EB8401C2
:1021D0005054601CC4B2042CBEDB3DE2FFE77F48D4
:1021E000C07D06287ED17D4890F824000028F9D1D2
:1021F0007A4890F82500744909688842F2D1002491
:1022000027E07649A01D085C75490855085DC1178F
:1022100000EB11710911734A525C04EB4401604BED
:102220005A546F49085DC11700EB11710911A0EBF9
:1022300001116C4A525C04EB4401491C5A54052CB0
:1022400005DA2D2104EB4400801C1A461154601C51
:10225000C4B2062CD5DB6148807F644908705F48B2
:10226000C07E48705D48007F88705C48407FC870C1
:1022700000243EE05D48005D5B4908550846005D6E
:10228000642190FBF1F05349085C002101EB8401CB
:102290003B4A50545448005D642190FBF1F201FB2D
:1022A00012000A2190FBF1F04A49085C012101EB80
:1022B0008401334A50544C48005D642190FBF1F294
:1022C00001FB12000A2190FBF1F201FB12004149CF
:1022D000085C022101EB8401294A5054032C06DAE0
:1022E0002E2000E088E0032101EB84015054601CA3
:1022F000C4B2042CBEDB394890F82F0000F0020075
:1023000018B13648FFF7EEF9A6E1344890F82F00EF
:1023100000F0100000286FD03048FFF712FAFFF7E6
:1023200007FA06464EB92D4890F82F0000F001003C
:1023300010B12A48FFF73CFA8EE12848811904229F
:102340002BA000F04DFB00B157E05DE01438000811
:10235000A83600083C666F6E742073697A653D3557
:10236000203E3C63656E7465723EC4FAB5E7C4D422
:10237000B1BEB5D84950B5D8D6B7A3BA0000000051
:10238000C400002020202020C4FAB5E7C4D4CDF832
:10239000BFA8CEEFC0EDB5D8D6B7A3BA00000000F5
:1023A000D40000203C2F63656E7465723E3C2F663E
:1023B0006F6E743E000000003C2F666F726D3E0031
:1023C00014040240AE000020B40000205C00002095
:1023D000A000002095000020A2000020E5000020C1
:1023E00064000020840000206000002077000020AE
:1023F000474554200000000003E198A20021A648B0
:10240000FFF7BBF98146F4E0A34A301D1118022200
:10241000A2A000F0E5FA002820D1A1A200219E4848
:10242000FFF7ABF98146AFF6340249469A48FFF709
:10243000A4F98146A6A249469748FFF79EF981462E
:10244000B24A49469448FFF798F98146AFF298029C
:1024500049469148FFF791F98146CAE08E4A301DFE
:1024600011180B22AAA000F0BBFA00282FD08A4A2C
:10247000301D11180522A9A000F0B2FA00B927E01A
:1024800087A200218448FFF778F98146AFF69C02C5
:1024900049468148FFF771F981468DA249467E4839
:1024A000FFF76BF981469F4A49467B48FFF765F97C
:1024B00081469DA249467848FFF75FF98146AFF211
:1024C000081249467448FFF758F9814691E000BF69
:1024D000714A06F10A015018FFF7DAF905466E480D
:1024E00090F84000A049087008460578681C30B98B
:1024F0009E4A00216848FFF740F9814679E0312D76
:102500000BD19B48008820F4007099490880312045
:1025100098490870984908700CE0352D0AD1944804
:10252000008840F400709249088035209149087075
:1025300091490870322D0BD18D48008820F0800021
:102540008B49088032208D4908708D4908700CE055
:10255000362D0AD18648008840F0800084490880E2
:1025600036208649087086490870332D0BD1804883
:10257000008820F040007E4908803320814908709F
:10258000814908700CE0372D0AD17948008840F065
:1025900040007749088037207A4908707A490870E6
:1025A000342D0BD17248008820F02000704908803B
:1025B000342076490870764908700CE0382D0AD12D
:1025C0006B48008840F020006949088038206F4936
:1025D00008706F4908706D4800780090694803786A
:1025E00066480278634801782B48FFF77AF98146FC
:1025F00000BF2948FFF7DCF849462748FFF716F9DE
:102600002AE02548C07D112825D1234890F82400D0
:10261000042820D1204890F82500B0281BD11E485E
:1026200090F826804FEA082890F827004044A0F14F
:102630000808002706E007F12A001749085C0AF895
:1026400007007F1C4745F6D352484246514603686F
:102650001148FFF70AF800BF02E500004854545043
:102660002F312E3020323030204F4B0D0A436F6E09
:1026700074656E742D547970653A20746578742F82
:1026800068746D6C0D0A0D0A3C68313E32303020A2
:102690004F4B3C2F68313E00E50000202F2000000A
:1026A000485454502F312E3020323030204F4B0DB3
:1026B0000A436F6E74656E742D547970653A207498
:1026C0006578742F68746D6C0D0A0D0A00000000A7
:1026D0003C63656E7465723EC3DCC2EBA3BA3C69B1
:1026E0006E70757420747970653D70617373776F67
:1026F0007264206E616D653D6D6D203E3C2F63659B
:102700006E7465723E3C62723E000000C437000881
:102710002F3F6D6D3D363534333231002F3F6C65C0
:1027200064000000643700083C666F6E74207369B3
:102730007A653D363E3C63656E7465723EC3DCC2AD
:10274000EBB4EDCEF3C7EBD6D8D0C2CAE4C8EBA346
:10275000A1A3A13C2F63656E7465723E3C2F666F2A
:102760006E743E3C62723E00BC000020943500084E
:10277000140402407B0000207F0000207C00002029
:10278000800000207D000020810000207E000020CD
:1027900082000020B80000201CB501210220FDF7B6
:1027A000A9FF01208DF8040000208DF8060001200B
:1027B0008DF8070002208DF805004FF43870009066
:1027C00069460448FDF766FD4FF438710148FDF78E
:1027D000DBFD1CBD000402405848006840F00100C9
:1027E0005649086000BF5548006800F00200002804
:1027F000F9D052481430006840F400704F49143149
:1028000008600846006820F4007008604B482030DB
:10281000006840F400704949203108604848006869
:1028200040F4E010464908604648006840F48030B3
:102830004449086042480C38006843490840404910
:102840000C3908600846006840F48070086008464B
:10285000006820F040700860081D00683B4908408F
:102860003749083908600846006840F002000860EF
:1028700033482030006820F0F8703149203108607A
:102880000846006808602E480C38006840F48070E4
:102890002B490C390860081D006840F00200091D32
:1028A00008600846006820F040500860084600684C
:1028B00020F4006008602248001D006840F080702D
:1028C0001F49091D0860704701461D4828300068EF
:1028D00020F478201A4A283210601046006840EA36
:1028E000C130106016480838006840F00100144AF2
:1028F000083A10601046006840F08040106000BF49
:102900000F481038006800F002000028F8D00C488A
:102910004830006880B2704770B506460B46002408
:10292000002505E03046FFF7CFFF0444681CC5B220
:102930009D42F7DBB4FBF3F080B270BD003802407B
:102940001024014004270140FFFEFFFCFDF7F0DFEB
:102950002DE9FC5F824601211020FFF7DDFF0446D0
:1029600000F038FD8346584600F0E8FC06464FF07C
:102970006632144B00F0EEFA044600F0B9F88346D4
:10298000584600F0DBFC80460F4A104B00F0E0FB9D
:1029900006460F4A0F4B00F085F900220E4BCDE999
:1029A000000100F0D7F8044600F0A2F883460B4976
:1029B000584600F023FD044600F0ECFCAAF80000A5
:1029C000BDE8FC9F66664A3FE17A14AE47E1F63FF8
:1029D00022FDF675E09C713F000039400000204167
:1029E00040EA010370B59B072ED14FF00136042A4F
:1029F0002AD308C810C99D1B9D43121F15EAC6158E
:102A000017D0D8B2E1B2401A50EA056110D198B29D
:102A1000A1B2401A50EA05410AD123F07F4024F0C8
:102A20007F41401A50EA052102D1180EA0EB146034
:102A300070BDA342DBD018BA21BA884201D9012067
:102A400070BD4FF0FF3070BD0AB9002070BD10F8A6
:102A5000013B11F8014B63B1A3420AD1521E08D0C9
:102A600010F8013B11F8014B1BB1A34201D1521EDA
:102A7000EDD1181B70BD704770477047754600F068
:102A80002BF8AE4605006946534620F00700854600
:102A900018B020B5FDF78AFBBDE820404FF00006D6
:102AA0004FF000074FF000084FF0000B21F0070136
:102AB000AC46ACE8C009ACE8C009ACE8C009ACE879
:102AC000C0098D46704710B50446AFF3008020461C
:102AD000BDE81040FDF755BB00487047C406002014
:102AE00001491820ABBEFEE7260002007047000037
:102AF00021F00042A2F16052B2F5801F01F00043C4
:102B000028BFD2F17F6C0BD95FEA001C43EAC202F6
:102B100042EB507018BF704728BF20F0010070478B
:102B2000B2F5801FBCBF184670474FEA410C1CF538
:102B3000001F02D2084600F028BD70B500F0B4FABC
:102B400000000089FFF7F6BF4FF00040A0F58000BD
:102B50007047000010B591EA030F48BF83F00043AF
:102B600000F10A83841A71EB030C05D2121943EBAE
:102B70000C03001B61EB0C01DFF824E14FEA115458
:102B8000A4EB135C1EEA430F18BF9EEA445F73D0A8
:102B900023EA0E03DCF1200E21EA045143F48013F2
:102BA00032D322FA0CFE10EB0E0023FA0CFE41EB9E
:102BB0000E01CCF1200E03FA0EFE10EB0E0051F1C7
:102BC0000001B1F5801FCCF1200E32D201EB04518F
:102BD00012FA0EF2BDE8104058BF7047401C38BFD3
:102BE0005FEA420218BF7047002814BF20F00100BE
:102BF00041F100014FEA410313F5001F38BF704750
:102C0000A1F1C04100F09EBA012A43EB0302ACF1EE
:102C1000200CDCF11F0E32BF4FF0000E23FA0CF334
:102C200010EB030041EB0451B4EB115FD0D0A1EBEA
:102C3000045101F5801149085FEA300001EB0451AD
:102C40000ED350F1000038BF12FA0EFE08D1BDE8D5
:102C50001040C9E7401C38BF5FEA4202CAD1C3E74F
:102C6000BDE810404FEA410313F5001F38BF70471D
:102C7000A1F1C04100F066BA9EEA445F08D011EAB3
:102C80005E0FBDE8104004BF01F000410020704716
:102C9000BDE8104070B500F007FA00BF64FBBE3E0F
:102CA0000000E0FF2DE9C04130B4DFF8A0C23CEAEB
:102CB000111418BF3CEA131400F0EC8081EA0305FC
:102CC0001CEA111444EAD57418BF1CEA131500F06D
:102CD000C780A4EB05044FF0004545EAC12145EA51
:102CE000C32341EA505143EA525304F17F7499429D
:102CF00004F500344FEAC0204FEAC22208BF9042D8
:102D000000F09C804FEA13650FF24016765D4FEAA3
:102D1000134506FB05F7C7F1807706FB07F74FEA77
:102D2000D737A7FB03687642C8F58038A7FB06CEE5
:102D300038BFA8F1010807FB08E64FF0000EA6FB1C
:102D4000028CE6FB03CEDCF1000CCEF1004E38BF66
:102D5000AEF1010EA6FB0C584FF000074FF0000536
:102D6000E6FB0E87A1FB08C6A0FB07CE16EB0E06FE
:102D700045F10005E1FB076515F1E04E7EBFA4F5C6
:102D800080345FEA46066D4116F1800745F1000583
:102D90004FEA17274FEA066647EA0567A6F1DE46BF
:102DA000B6F1805F4FEA15251FD9384624F0010C93
:102DB00005EBC471BCF1FE6F01EB0C1102D8F0BC45
:102DC000BDE8008124425CBF01F5801E9EEAC47FFD
:102DD00002D4F0BCBDE80081244238D4F0BCA1F19B
:102DE000C041BDE8004100F0ADB94FEAD22242EA4D
:102DF00043524FEAD323A7FB02864FEAD02040EA92
:102E0000415007FB03661EEA0E0F4FEAD12105FB76
:102E1000026658BFA6EB0056B6EB00564FEA520EBC
:102E20004EEAC37E18EB0E0E56EB530EBDD518EBD3
:102E300002085E417F1C55F10005B6E74FF480158E
:102E40004FF000074FF000064FF00008ADE7F0BC70
:102E50004FF0000001F1C04101F00041BDE80081E8
:102E600011EA0C1F0CEA131500D00CE013EA0C1F3A
:102E700000F025804FF00000F0BC81EA030101F072
:102E80000041BDE80081F0BCBDE8004181EA0301DA
:102E900000F058B9F0BCBDE8004170B500F004F98D
:102EA000097EFC3E00F007B881EA03014FF0000004
:102EB00001F00041704781EA030100F043B9F0BC22
:102EC000BDE800414FF0000021497047FFFDFBF9CC
:102ED000F7F5F4F2F0EEEDEBE9E8E6E4E3E1E0DE4D
:102EE000DDDBDAD8D7D5D4D3D1D0CFCDCCCBCAC8BF
:102EF000C7C6C5C4C2C1C0BFBEBDBCBBBAB9B8B7E6
:102F0000B6B5B4B3B2B1B0AFAEADACABAAA9A8A8D8
:102F1000A7A6A5A4A3A3A2A1A09F9F9E9D9C9C9BA6
:102F20009A99999897979695959493939291919051
:102F30008F8F8E8E8D8C8C8B8B8A898988888787E2
:102F40008685858484838382828181800000FF0757
:102F50000000F87FDFF848C170B51CEA111E1EBFE3
:102F60001CEA13159EEA0C0F95EA0C0F00F06F8017
:102F700081EA030423EA4C134EEAD47E21EA4C1181
:102F800041F4801143F48013AE44A1FB024CA0FB3A
:102F90000365AEF17F7E361955EB0C05A1FB034CA2
:102FA0004CF10003A0FB021C16EB0C06654153F12B
:102FB0000003094218BF46F0010613F4007F0BD14D
:102FC0004FEA03314FEA0530340341EA155140EA34
:102FD00016506FF003020AE04FEAC3214FEAC52002
:102FE000F40241EA555140EA56506FF0020202EBFA
:102FF0002E4201EB025585EACE710AD05FEA440CFD
:1030000018BF24F0004450F1000041F1000120EA13
:10301000D47040F2FE7C624500D270BDA84214BF5D
:103020004FF080444FF04044002E08BF0024BEF112
:10303000806FA8BFA1F1C041BDE8704080F28280DE
:103040004FF0000001F1C04101F0004170479EEADD
:103050000C0F0CEA131518BF95EA0C0F06D04FF0B1
:10306000000081EA030E0EF0004170BD00F01CF874
:103070008900013E00F007B800F009B84FEA430CA0
:103080005FEA5C5C08D081EA030100F05BB84FEABC
:10309000410C5FEA5C5CF6D14FF0000001497047DB
:1030A0000000FF070000F87F0EF1020E2EF0030E65
:1030B0005EF8046B364205D4012A43EB030515F58F
:1030C000001F12D8012841EB010C1CF5001F0CD881
:1030D0000ED14FEAD17C15F5001F0CEB4C0C0CF116
:1030E000020C08BF4CEBD37C04E04FF0080C01E06D
:1030F0004FEAD37C0CEB4C0526FA05F606F00706E2
:10310000B6F1040C06D20EEB860CBDE870404CF014
:10311000010C6047DFE80CF0090B02024FF00041A0
:103120004FF00000A1F5002170BD1946104601289E
:1031300051EB010418BFD4F5001484BF002001F046
:10314000004170BD0808A0F500114FEA3101704739
:1031500091EA030F10B581F000413FF503AD83F014
:10316000004300F009B8000010B591EA030F48BF12
:1031700083F000433FF5F6AC841A71EB030C07D2E1
:1031800012198CF0004C43EB0C03001B61EB0C019B
:10319000DFF8A4E14FEA1154A4EB135C1EEA430FDD
:1031A00018BF9EEA445F00F0B08023EA6E035242EB
:1031B00021EA0451C3EB6E0338BF5B1EDCF1200E25
:1031C00025D322FA0CFE10EB0E0043FA0CFE41EB65
:1031D0000E01CCF1200E03FA0EFE10EB0E0051F1A1
:1031E0000001CCF1200E29D412FA0EF201EB0451A9
:1031F000BDE8104058BF7047401C1CBFB2F1004FE3
:10320000704700280CBF491C20F00100704712EBEA
:10321000020E43EB030218BF4FF0010E4EEA4202CA
:10322000ACF1200CDCF11E0E54D943FA0CFE10EB6D
:103230000E0051F1FF31CCF11E0ED5D50EF1010E6D
:1032400012FA0EFE404141EB010101EB445C5FEAE2
:103250005C5C10D910EBDE7001EB045138BFBEF19D
:10326000004FBDE8104018BF704700280CBF491C34
:1032700020F00100704730D24FEAD42C11F5001134
:1032800024F400641BD0B1FA81F20B3AA41AA41EF4
:10329000D2F12003914030FA03F31943904001EB3F
:1032A000CC71002C01EB0451BDE81040A8BF704761
:1032B00001F1C0414FF0000001F000417047B0FA49
:1032C00080F310FA03F100D110BDE41A173C480551
:1032D000C90AE4E701EB045110BD491001EB0451A8
:1032E000BDE810404FEA300002E04FF000017047A7
:1032F0004A0008BF0042F8D0B2F5001F28BF70474F
:1033000001F000414FF0000070479EEA445F07D093
:1033100011EA5E0FBDE8104004BF00210020704795
:10332000BDE8104070B5FFF7BFFE00BF40DFF63EBE
:1033300083F00041104670470000E0FF43004FEA71
:10334000D30C4FEA3C0C43401FBF40070CF16051C7
:1033500013F0FE4F70471CF0006F03D100200CF0FB
:10336000004170470CF0004343EA507010B540EA4A
:10337000CC0000F0C4F800BF000000924FEA00014A
:10338000FFF7E0BE4FF000414FF00000A1F5002133
:1033900070470000C10DD1F19E0206DB4FEA002309
:1033A00043F0004323FA02F07047004207D54FEA8A
:1033B0004001B1F1FE4F02D24FF00000704710B54E
:1033C00000F09DF849922480002070476FEA2000A9
:1033D00070470000B0FA80F310FA03F2C3F19D03C6
:1033E0000AD0D90501EB1220530638BF704700F10F
:1033F000010008BF20F00100704700004FF47F0C6F
:103400001CEAD0121EBF1CEAD11392EA0C0F93EAF9
:103410000C0F00F0478090EA010F48BF42F4807221
:103420004FF0004C4CEA00204CEA012102EB030271
:10343000A0FB0113A2F50002002918BF43F001030D
:103440005B0028BF4FEA330342EB22425FEA132CB2
:103450004CEBC2502EBFBCEB436FB2F57C0F7047F4
:103460004FEA036CBCF1004F08BF20F00100B2F539
:103470007C0F38BF70470BD582F0FF0212F5803FFA
:10348000C8BF704700F1C040D8BF00F0004070478F
:1034900000F5000C5FEA4C0C48BF7047B0F1C0402B
:1034A00000F073B890EA010F0CEAD11348BF42F460
:1034B0008072624538BF634504D280EA010000F0A3
:1034C0000040704710B500F01AF800BF8900013EB7
:1034D00000F007B800F009B85FEA410C5FEA1C6C25
:1034E00008D080EA010000F050B85FEA400C5FEAC3
:1034F0001C6CF6D14FF00040A0F5800070470EF133
:10350000020E2EF0030E5EF8044B244204D44FEA60
:103510004102B2F17F4F11D84FEA4003B3F17F4F20
:103520000CD80ED14FEAD07CB2F17F4F0CEB4C0C93
:103530000CF1020C08BF4CEBD17C04E04FF0080CFE
:1035400001E04FEAD17C0CEB4C0324FA03F404F0C5
:103550000704B4F1040C06D20EEB840CBDE8104055
:103560004CF0010C6047DFE80CF0070802024FF056
:103570000040A0F5800010BD0846420018BFD2F1FF
:10358000807288BF00F0004010BDFF2141EAD0509A
:10359000C0057047485454502F312E3020343031FC
:1035A00020556E617574686F72697A65640D0A439F
:1035B0006F6E74656E742D547970653A20746578F9
:1035C000742F68746D6C0D0A0D0A3C68313E3430FE
:1035D0003120556E617574686F72697A65643C2F2D
:1035E00068313E003C6D6172717565652062656889
:1035F0006176696F723D616C7465726E6174653E6F
:10360000C7B6C8EBCABDB7FECEF1C6F749503A31CE
:1036100039322E3136382E312E313030204D414363
:103620003A30342D30322D33352D30302D30302D91
:1036300030313C2F6D6172717565653E3C503E00C6
:103640003C6D617271756565206265686176696F50
:10365000723D616C7465726E617465207363726F24
:103660006C6C616D6F756E743D31353ECFB5CDB309
:10367000D7CAD4B4A3BA53544D333246313033523F
:103680004254362C3132384B20466C6173682C2002
:1036900036344B205352414D3C2F6D61727175652C
:1036A000653E3C503E000000093C61206872656642
:1036B0003D687474703A2F2F6D63752D7765622E97
:1036C00074616F62616F2E636F6D3E3C63656E74F3
:1036D00065723ECFEBC1CBBDE2B8FCB6E0B5C7C862
:1036E000EBB9D9B7BDCCD4B1A6B5EA3A6874747059
:1036F0003A2F2F6D63752D7765622E74616F62614D
:103700006F2E636F6D3C2F63656E7465723E3C2F48
:10371000613E00003C666F6E742073697A653D37C8
:103720003E3C63656E7465723EBBF9D3DA53544D0B
:103730003332B5C4D2D4CCABCDF8CDA8D0C5CFB53B
:10374000CDB3C9E8BCC63C2F63656E7465723E3C60
:103750002F666F6E743E3C62723E3C703E3C703E23
:10376000000000003C63656E7465723E3C696E70DB
:10377000757420747970653D7375626D6974207617
:10378000616C75653DB5C7C8EB3E3C696E7075747C
:1037900020747970653D72657365742076616C750F
:1037A000653DD6D8C9E83E3C2F63656E7465723EB0
:1037B0003C62723E3C62723E3C62723E3C62723ED1
:1037C000000000003C63656E7465723E3C696E707B
:1037D000757420747970653D7375626D69742076B7
:1037E000616C75653DB5C7C8EB3E3C696E7075741C
:1037F00020747970653D72657365742076616C75AF
:10380000653DD6D8C9E83E3C2F63656E7465723E4F
:10381000000000003C666F6E742073697A653D3568
:1038200020636F6C6F723D22233030464630302269
:103830003E3C63656E7465723E3C62723ECAC0BDBA
:10384000E7B4A5CAD6BFC9BCB020D2BBC7D0BDD4CF
:10385000D3D0BFC9C4DC3C2F63656E7465723E3C37
:103860002F666F6E743E000088380008000000204C
:10387000C4000000300100084C390008C4000020DA
:10388000640C00004C010008030406080C1018200A
:1038900030000000000102030401020304060708CF
:1038A000090000000048E801030406080C10182075
:1038B00030000000000000000001020304060708B9
:1038C000090000000000000000000000500000009F
:1038D00000000000000000000000000000000000E8
:1038E0000A000000C0A8016C0000000000000000F9
:1038F00000003139322E3136382E312E3130380039
:1039000000000000000000000000000030313233F1
:103910003435363738394142434445460030313238
:10392000333435363738390000000000000000001D
:1039300000000000000008D40C000001500000004E
:0C394000B0040000003132333435360092
:04000005080000F5FA
:00000001FF
