:020000040800F2
:100000004804002009010008FD1F0008FF1F000828
:1000100003200008072000080B2000080000000053
:100020000000000000000000000000001120000897
:100030000F20000800000000132000081520000811
:100040002301000823010008230100082301000800
:1000500023010008230100082301000823010008F0
:1000600023010008230100082301000823010008E0
:1000700023010008230100082301000823010008D0
:1000800023010008230100082301000823010008C0
:1000900023010008230100082301000823010008B0
:1000A00023010008230100082301000823010008A0
:1000B000172000082301000823010008230100087D
:1000C0002301000823010008230100082301000880
:1000D0002301000823010008230100082301000870
:1000E0002301000823010008230100082301000860
:1000F00023010008DFF80CD002F07AF9004800472D
:10010000BB1B0008480400200648804706480047FB
:10011000FEE7FEE7FEE7FEE7FEE7FEE7FEE7FEE7B7
:10012000FEE7FEE7AB1E0008F500000810B5044628
:10013000FE48844207D10121401500F067FD0021EF
:10014000601500F063FD10BD30B5024600200023AD
:100150005068F74C20400D790C6844EA0524204390
:1001600050609068F34C2040D1E903542C438D68D3
:100170002C434D7944EA450420439060106B20F0F5
:10018000F8700C7D641EE4B2234340EA0350106310
:1001900030BD002101600171417181604FF04071FB
:1001A000C1600021016101210175704701460020F5
:1001B000E14A106820F440300A681043DE4A1060BB
:1001C000704700210160704721B1826842F001024E
:1001D000826003E0826822F001028260704721B1F0
:1001E000826842F00402826003E0826822F0040226
:1001F000826070471AB143680B43436002E0436872
:100200008B43436070470A460021816821F0F0016A
:100210001143816070470A4600214168C74B19406D
:100220001143416070478162C26270470A460021F3
:10023000416821F01F0111434160704730B1BE4950
:10024000096841F40001BC4A116005E0BA49096837
:1002500021F40001B84A11607047F0B504460D461C
:10026000002000211D2D11DDE06DA5F11E0606EB1D
:100270004607072606FA07F18843A5F11E0606EB96
:10028000460603FA06F10843E06534E0132D11DD5C
:10029000E068A5F1140606EB4607072606FA07F103
:1002A0008843A5F1140606EB460603FA06F1084357
:1002B000E06020E0092D11DD2069A5F10A0606EBBA
:1002C0004607072606FA07F18843A5F10A0606EB5A
:1002D000460603FA06F1084320610CE0606905EB6D
:1002E0004507072606FA07F1884305EB450603FA9A
:1002F00006F108436061072A0FDA206C561E06EBF0
:1003000086071F2606FA07F18843561E06EB860667
:1003100005FA06F1084320644AE00D2A0FDAE06B83
:10032000D61F06EB86071F2606FA07F18843D61F5D
:1003300006EB860605FA06F10843E06338E0132A67
:1003400011DAA06BA2F10D0606EB86071F2606FA4E
:1003500007F18843A2F10D0606EB860605FA06F1C1
:100360000843A06324E0192A11DA606BA2F1130696
:1003700006EB86071F2606FA07F18843A2F113064B
:1003800006EB860605FA06F10843606310E0206B71
:10039000A2F1190606EB86071F2606FA07F1884325
:1003A000A2F1190606EB860605FA06F1084320635A
:1003B000F0BD816841F080418160704701460020B6
:1003C0008A6802F080420AB1012000E000207047F4
:1003D00021B1826842F48062826003E0826822F484
:1003E00080628260704721B1826842F002028260BE
:1003F00003E0826822F002028260704710B50A466C
:1004000000210023416821F46041531E41EA433139
:10041000416010BD21B1426842F40062426003E0D5
:10042000426822F40062426070470146886D80B2E3
:10043000704721B1826842F48072826003E0826872
:1004400022F480728260704721B1826842F40072A7
:10045000826003E0826822F4007282607047F0B527
:10046000044615460020002200261D2911DDE06DFE
:10047000A1F11E0707EB470C072707FA0CF2904380
:10048000A1F11E0707EB470703FA07F21043E065E7
:1004900034E0132911DDE068A1F1140707EB470CE4
:1004A000072707FA0CF29043A1F1140707EB47075F
:1004B00003FA07F21043E06020E0092911DD20690A
:1004C000A1F10A0707EB470C072707FA0CF2904344
:1004D000A1F10A0707EB470703FA07F2104320616F
:1004E0000CE0606901EB410C072707FA0CF290431E
:1004F00001EB410703FA07F210436061606CC0F33F
:100500000156EF1C06F1010CA7EB0C0707EB870C5B
:100510001F2707FA0CF29043EF1C06F1010CA7EB22
:100520000C0707EB870701FA07F209E000240140F6
:10053000FFFEFFFCFDF7FFC004270140FFFD3FFF6A
:1005400010436064F0BD10B50A4600210023416CE1
:1005500021F44011531E41EA0351416410BD08B516
:10056000002300930090009B0B440093009B1A60B3
:1005700008BD0A460021816821F470211143816081
:1005800070470A460021816821F4401111438160BF
:100590007047816841F48001816070470146002006
:1005A0008A6802F480020AB1012000E0002070474E
:1005B00021B1426842F48062426003E0426822F462
:1005C00080624260704721B1426842F480524260CA
:1005D00003E0426822F480524260704708B5024648
:1005E00000200090009201F13000009B1844009020
:1005F0000098006880B208BD10B50B460021D9B242
:10060000012404FA01F11AB144680C43446002E089
:1006100044688C43446010BD0246002013680B40C0
:100620000BB1012000E000207047CA430260704710
:1006300070B502460020002300240B0A55680126ED
:100640008E4005EA060415681D4015B10CB1012065
:1006500000E0002070BD00220A12D34303607047FF
:1006600010B504468548844208D10121084600F0AF
:10067000BCFA0021012000F0B8FA52E08048844220
:1006800008D10121022000F0B0FA0021022000F080
:10069000ACFA46E07B48844208D10121042000F0F6
:1006A000A4FA0021042000F0A0FA3AE0764884423F
:1006B00008D10121082000F098FA0021082000F05C
:1006C00094FA2EE07148844208D10121102000F0F4
:1006D0008CFA0021102000F088FA22E06C48844255
:1006E00008D10121402000F080FA0021402000F0D4
:1006F0007CFA16E06748844208D10121802000F08E
:1007000074FA0021802000F070FA0AE06248844206
:1007100007D10121202000F068FA0021202000F0FC
:1007200064FA10BDF0B50A4600210023002400BF82
:100730003DE0012505FA01F3156805EA03049C4232
:1007400034D105684F000326BE40B54305601579D6
:100750004E00B5400668354305601579012D02D07D
:100760001579022D16D185684F000326BE40B5438A
:10077000856055794E00B54086683543856085882B
:1007800001268E40B5438580858896798E40B6B225
:1007900035438580C5684F000326BE40B543C5601C
:1007A000D5794E00B540C6683543C560491C10294F
:1007B000BFD3F0BD4FF6FF7101600021017141719F
:1007C0008171C171704708B54FF480320092009A70
:1007D0000A430092009AC261C161009AC261C26973
:1007E0000092C269009208BD02460020138A0B40A5
:1007F0000BB1012000E0002070470146088A7047D5
:1008000002460020938A0B400BB1012000E000203B
:1008100070470146888A704701837047418370475B
:100820000AB1018300E04183704781827047828A68
:100830004A4082827047F0B5002300244D07ED0E38
:1008400002FA05F3CE1000F1200555F826504E07A8
:10085000F70E0F26BE40B543CF1000F1200646F834
:100860002750CE1000F1200555F8265045EA030424
:10087000CE1000F1200545F82640F0BD00000240F2
:100880000004024000080240000C02400010024038
:1008900000180240001C024000140240F9480068A1
:1008A00040F48070F7490860F64808300068F6495F
:1008B0000840F44908310860F2480068F3490840EC
:1008C000F04908600846006820F480200860ED4880
:1008D0000830006820F47D00EA49083108600020F3
:1008E000091D086070470021E64A921C11701146EC
:1008F0000870704710B501460022002300204A11FD
:10090000012A02D1DF4C236802E0DE4C3434236834
:1009100001F01F02012494401C400CB1012000E0B2
:10092000002010BD38B5002000900024002500BF35
:100930003120FFF7DFFF05460098401C009000982B
:10094000B0F5A06F01D0002DF2D03120FFF7D2FF1B
:1009500008B1012400E00024204638BDC949C91D62
:100960000870704701460020C64A121D106820F426
:100970006040084310607047C549086270470146EF
:100980000020C04A121D106820F4F85040EA0120EF
:1009900010607047BE49086070470021B94A35327F
:1009A0001170114608707047BA490860704710B559
:1009B00041EA02030343B34C0A34237010BDB44927
:1009C00008667047B24908677047B2492C31086021
:1009D000704740EA0102AB4B0B331A707047014677
:1009E0000020A84A0832106820F003000843106075
:1009F0007047A4480830006800F00C0070470146BA
:100A00000020A04A0832106820F0F000084310606F
:100A10007047014600209B4A0832106820F4E060CD
:100A200008431060704701460020964A083210685B
:100A300020F4605040EAC10010607047F0B500211A
:100A4000002200230026002400258E4F08373F682F
:100A500007F00C0131B1042912D0082913D00C2958
:100A600037D113E0874F3F1D3F68C7F342356F1CF6
:100A70004FF0010C0CFA07FC4FEACC37076036E068
:100A8000854F076033E0854F076030E07D4F0837C2
:100A90003F6807F470127B4F08373F6807F4400344
:100AA0007F4F07EB92473A78012707EB9353754F37
:100AB00008373F6807F480362EB9774F5743B7FBA6
:100AC000F3F7076004E0754F5743B7FBF3F7076090
:100AD0000DE06C4F3F1D3F68C7F342356F1C4FF070
:100AE000010C0CFA07FC4FEACC37076000BF00BFCF
:100AF000644F08373F6807F0F0010909694F7C5CD3
:100B00000768E74047605F4F08373F6807F4E061D8
:100B1000090A644F7C5C4768E7408760594F083793
:100B20003F6807F46051C90A5E4F7C5C4768E74044
:100B3000C760F0BD002100F44032B2F5403F08D15B
:100B4000504A116821F0C04100F0C04211434D4AA3
:100B500011604C4A3432126822F44032494B34332B
:100B60001A601A46126800F440331A43454B343376
:100B70001A607047474958310860704745495C31F1
:100B80000860704739B13F4A1C32126802433D4B3E
:100B90001C331A6006E03B4A1C3212688243394B10
:100BA0001C331A60704739B1364A2032126802434A
:100BB000344B20331A6006E0324A203212688243F6
:100BC000304B20331A60704739B12E4A24321268F4
:100BD00002432C4B24331A6006E02A4A243212685E
:100BE0008243284B24331A60704739B1254A1032AA
:100BF00012680243234B10331A6006E0214A103278
:100C0000126882431F4B10331A60704739B11D4A76
:100C10001432126802431B4B14331A6006E0194A5F
:100C2000143212688243174B14331A60704739B17B
:100C3000144A183212680243124B18331A6006E045
:100C4000104A1832126882430E4B18331A607047EC
:100C500039B10C4A2832126802430A4B28331A6011
:100C600006E0084A283212688243064B28331A608D
:100C70007047C9B1034A2C3212680243014B2C332E
:100C80001A6016E0003802400CC0FF88FEFFFEEE3E
:100C900000004742800647420024F40000127A0018
:100CA00000000020090000201F4A126882431E4BEA
:100CB0001A60704739B11C4A121D126802431A4B60
:100CC0001B1D1A6006E0184A121D12688243164B5B
:100CD0001B1D1A60704739B1134A1F3A127802433C
:100CE000114B1F3B1A7006E00F4A1F3A12788243DD
:100CF0000D4B1F3B1A7070470B480830006840F0DE
:100D00008070094908310860704701460020064A92
:100D1000203A12680A400AB1012000E00020704722
:100D200001491E39087070472C38024010B504463E
:100D3000B4F1804F08D101210846FFF778FF002168
:100D40000120FFF774FF5EE0FB48844208D10121D7
:100D50000220FFF76CFF00210220FFF768FF52E03E
:100D6000F648844208D101210420FFF760FF0021EA
:100D70000420FFF75CFF46E0F148844208D10121DE
:100D80000820FFF754FF00210820FFF750FF3AE04A
:100D9000EC48844208D101211020FFF748FF0021D0
:100DA0001020FFF744FF2EE0E748844208D10121DC
:100DB0002020FFF73CFF00212020FFF738FF22E032
:100DC000E248844208D101210420FFF71FFF0021DF
:100DD0000420FFF71BFF16E0DD48844208D1012103
:100DE0000820FFF713FF00210820FFF70FFF0AE09C
:100DF000D848844207D101211020FFF707FF0021C6
:100E00001020FFF703FF10BD00220288B0F1804FD1
:100E100008D0C94B984205D0C84B984202D0C84B65
:100E2000984204D14FF68F731A404B881A43C54B32
:100E3000984207D0C44B984204D04FF6FF431A4063
:100E40000B891A4302804B68C3620B880385012318
:100E5000838270474FF0FF314160002101800181A2
:100E6000418070470185828270470A4600210188CF
:100E70004FF68F73194011430180704741627047EC
:100E8000C16270470146486A70470146088D704745
:100E900021B1028842F00202028004E002884FF68B
:100EA000FD731A400280704721B1028842F00402AB
:100EB000028004E002884FF6FB731A4002807047FC
:100EC00021B1028842F08002028004E002884FF6DD
:100ED0007F731A400280704702884FF6F7731A40FA
:100EE000028002880A430280704702884FF6FF435F
:100EF0001A40028002880A430280704721B10288AA
:100F000042F00102028004E002884FF6FE731A40AC
:100F10000280704730B500230022048C4FF6FE7526
:100F20002C400484028C038B4FF68F742340AC1E3C
:100F300023400C8823436C1E22400C8922434C889A
:100F400022434C6844630383028430BD30B50023E0
:100F50000022048C4FF6EF752C400484028C038B26
:100F600048F6FF7423400C884FF6FF7505EA042409
:100F700023434FF6DF7422400C8905EA0414224310
:100F80004C8805EA041422434C688463038302847A
:100F900030BD30B500230022048C4FF6FF652C4095
:100FA0000484028C838B4FF68F7423400C88234378
:100FB0004FF6FF5422400C894FF6FF7505EA0424D2
:100FC00022434C8805EA042422434C68C46383838B
:100FD000028430BD30B500230022048C4EF6FF752C
:100FE0002C400484028C838B48F6FF7423400C88C9
:100FF0004FF6FF7505EA042423434DF6FF742240A3
:101000000C8905EA043422434C8805EA043422435F
:101010004C6804648383028430BD002101804180D8
:1010200041600181704770B50346002000241846D6
:10103000183001258D40ACB21D8CA5431D8409B12B
:10104000082909D100EB6100056825F070050560ED
:101050000568154305600EE00D1FC5F34E052844D5
:10106000056825F4E045056005684FF6FF7606EA59
:1010700002263543056070BD416370478163704748
:10108000C1637047016470470A460021018B4FF627
:101090008F7319401143018370470A460021018B69
:1010A00048F6FF7319404FF6FF7303EA0223194312
:1010B000018370470A460021818B4FF68F731940D8
:1010C0001143818370470A460021818B48F6FF73E4
:1010D00019404FF6FF7303EA0223194381837047D7
:1010E0000A460021018B4FF6F77319401143018323
:1010F00070470A460021018B4FF2FF7319404FF6EB
:10110000FF7303EA02231943018370470A46002153
:10111000818B4FF6F77319401143818370470A465C
:101120000021818B4FF2FF7319404FF6FF7303EAE2
:1011300002231943818370470004004000080040E7
:10114000000C004000100040001400400008014066
:10115000000C0140001001400A460021018B4FF6AF
:10116000FB7319401143018370470A460021018B2C
:101170004FF6FF3319404FF6FF7303EA022319437A
:10118000018370470A460021818B4FF6FB7319409B
:101190001143818370470A460021818B4FF6FF334C
:1011A00019404FF6FF7303EA022319438183704706
:1011B0000A460021018B4FF67F73194011430183CA
:1011C00070470A460021018BC1F30E014FF6FF73F1
:1011D00003EA02231943018370470A460021818BE9
:1011E0004FF67F7319401143818370470A460021EF
:1011F000818BC1F30E014FF6FF7303EA02231943FB
:10120000818370470A460021018C4FF6FD73194017
:101210001143018470470A460021018C4FF6DF73A9
:1012200019404FF6FF7303EA021319430184704714
:101230000A460021018C4FF6FF5319404FF6FF7309
:1012400003EA02231943018470470A460021018CF6
:101250004DF6FF7319404FF6FF7303EA023319434B
:101260000184704702894FF6F7731A4002810289A0
:101270000A430281704730B5002301248C40A3B299
:10128000048C9C430484048C02FA01F5ADB22C4317
:10129000048430BD828B4FF2FF331A408283828BED
:1012A0004FF6FF7303EA01231A4382837047F0B5B8
:1012B0000C461546002100220026078C4EF6FF7CC6
:1012C00007EA0C070784818B028C4FF6FF7707EA49
:1012D000043640F6FF4739404FF6FF7707EA052707
:1012E00039434FF6FF7707EA0337394345F6FF776F
:1012F0003A4046F480573A4381830284F0BD828BA2
:101300004FF6F3731A408283828B0A4382837047BD
:10131000F0B50C461546002100220026078C4FF63A
:10132000FF6C07EA0C070784818B028C4FF6FF776E
:1013300007EA04264FF60C7739404FF6FF7707EAA5
:1013400003172F4339434FF2FF573A4046F4807753
:101350003A4381830284F0BD028B4FF2FF331A407F
:101360000283028B4FF6FF7303EA01231A430283C1
:101370007047F0B50C461546002100220026078C68
:101380004FF6EF7C07EA0C070784018B028C4FF6BF
:10139000FF7707EA041640F6FF4739404FF6FF771C
:1013A00007EA033739434FF6FF7707EA0527394342
:1013B0004FF65F773A4046F010073A4301830284C4
:1013C000F0BD028B4FF6F3731A400283028B0A437F
:1013D00002837047F0B50C46154600210022068CAA
:1013E0004FF6FE773E400684018B028C4FF60C765A
:1013F00031407E1C06EA03162E4331434FF6F57644
:10140000324044F00106324301830284F0BD70B5DE
:1014100005460C46208850B92389A2886188284651
:10142000FFF7D8FFE1882846FFF7CBFF25E02088AB
:1014300004280AD12389A28861882846FFF799FFEA
:10144000E1882846FFF788FF17E0208808280AD19E
:101450002389A28861882846FFF75AFFE188284639
:10146000FFF74DFF09E02389A28861882846FFF72E
:101470001EFFE1882846FFF70DFF70BD00210180A7
:101480004180012181800021C180018170472DE9C7
:10149000F04105460C4600260127608808B902265F
:1014A00000E00026A088012801D1022700E00127E2
:1014B0002088A0B92389A28861882846FFF78AFF7F
:1014C000E1882846FFF77DFF23893A4631462846C2
:1014D000FFF74FFFE1882846FFF73EFF13E023891F
:1014E000A28861882846FFF744FFE1882846FFF775
:1014F00033FF23893A4631462846FFF76BFFE188E0
:101500002846FFF75EFFBDE8F0810146486B704753
:101510000146886B70470146C86B70470146086CEE
:1015200070471AB183890B43838102E083898B431F
:10153000838170478182704702460020138A0B40E6
:101540000BB1012000E000207047CA4302827047BF
:1015500030B50246002000230024158A05EA010365
:10156000958905EA010413B10CB1012000E00020C7
:1015700030BDCA430282704741EA0203A0F84830F6
:1015800070471AB183890B43838102E083898B43BF
:101590008381704721B1828842F00802828004E092
:1015A00082884FF6F7731A408280704701894FF6A0
:1015B000F8721140018170470A46002101894FF6F7
:1015C0008F73194011430181704730B504460D46B1
:1015D00029462046FFF7F0FF208940F007002081D0
:1015E00030BD2DE9F04104460D4616461F46602DDC
:1015F00006D13B46012231462046FFF7BAFE05E000
:101600003B46012231462046FFF7E4FE29462046AC
:10161000FFF7D2FF208940F007002081BDE8F0816C
:1016200030B50C4600210189C9B24FF6FF7505EAB5
:101630000325154325432943018130BD2DE9F041A0
:1016400005460E4617469846002443463A4631461C
:101650002846FFF7E5FF2C894FF6F870044044F068
:1016600007044FF68F70044044F070042C81BDE8ED
:10167000F081F0B504460D4616461F463B463246FD
:1016800029462046FFF7CCFF208940F48040208186
:10169000F0BD82884FF68F731A40828082880A4399
:1016A0008280704702894FF6F8731A4002810289DE
:1016B0000A430281704702894FF67F731A40028104
:1016C00002890A4302817047F0B50C4615461E4652
:1016D0000021002200230189028B038C4FF6F8774A
:1016E000394021434FF6FC473A4040F201173A4354
:1016F0004FF6DD773B404FF6FF7707EA06172F439B
:101700003B43018102830384F0BD21B1828842F012
:101710008002828004E082884FF67F731A408280C4
:10172000704730F8502F02EA1142028002888BB2D3
:101730001A4320F85029704710B50446F7488442F0
:1017400009D101218803FFF761FA00214FF480409D
:10175000FFF75CFA32E0F248844209D101214804E3
:10176000FFF765FA00214FF40030FFF760FA25E03B
:10177000EC48844209D101218804FFF758FA00217E
:101780004FF48020FFF753FA18E0E748844209D16C
:101790000121C804FFF74BFA00214FF40020FFF7A6
:1017A00046FA0BE0E148844208D101210805FFF721
:1017B0003EFA00214FF48010FFF739FA10BD2DE9F1
:1017C000FF4705460E460024A14600BFA046B0894B
:1017D00000B100BF2C8A24F44054F08804432C82CA
:1017E000AC8941F20C608443B08831890843718927
:1017F00008430443AC81AC8A24F44074B0890443A8
:10180000AC826846FFF71AF9C448854202D1DDF878
:101810000C9001E0DDF80890A88900F4004040B188
:1018200009EBC90000EB091031684900B0FBF1F782
:1018300007E009EBC90000EB091031688900B0FB33
:10184000F1F76420B7FBF0F004012009642101FBEB
:101850001078A88900F4004040B1322000EBC800A5
:10186000B0FBF1F000F00700044308E0322000EB89
:1018700008106421B0FBF1F000F00F0004432C814C
:10188000BDE8FF874FF41651016000218180C180BF
:1018900001810C21418100218181704710B50246F0
:1018A0000020108A20F470600B884C8823438C88B9
:1018B0002343CC8823431843108210BD00210180AC
:1018C00041808180C180704721B1828942F40052F9
:1018D000828104E082894DF6FF731A40828170474D
:1018E000028B02F47F420283028B0A430283704719
:1018F00021B1828942F40042828103E08289C2F3ED
:101900000E028281704721B1828A42F40062828293
:1019100004E0828A4FF2FF731A4082827047C1F35B
:1019200008028280704701468888C0F3080070472B
:10193000028A4FF6F0731A400282028A0A43028238
:10194000704721B1828942F00202828104E08289DB
:101950004FF6FD731A408281704782894FF2FF7300
:101960001A40828182890A4382817047028A4FF637
:10197000DF731A400282028A0A430282704721B151
:10198000028A42F48042028204E0028A4BF6FF732C
:101990001A4002827047818941F0010181817047BC
:1019A00021B1828A42F00802828204E0828A4FF6E4
:1019B000F7731A4082827047028BD2B20283028B85
:1019C00042EA01220283704721B1828A42F020025A
:1019D000828204E0828A4FF6DF731A408282704767
:1019E00021B1828A42F01002828204E0828A4FF69C
:1019F000EF731A4082827047828A4FF6FB731A4057
:101A00008282828A0A438282704721B1828A42F0AE
:101A10000202828204E0828A4FF6FD731A408282BB
:101A200070471AB1838A0B43838202E0838A8B4317
:101A300083827047F0B5034600240026002500206D
:101A400040F66A17B94200D100BF1846C1F34214EC
:101A500001F01F06012707FA06F5012C01D10C3011
:101A600004E0022C01D1103000E014301AB10768F4
:101A70002F43076002E00768AF430760F0BD0246EE
:101A80000020B1F5007F00D100BF13880B400BB1DF
:101A9000012000E00020704701F40072B2F5007FE1
:101AA00000D100BFCA430280704770B502460024CF
:101AB00000230025002040F66A16B14200D100BF85
:101AC000C1F3421501F01F03012606FA03F3012DAD
:101AD00002D19689334006E0022D02D1168A3340A6
:101AE00001E0968A33400C12012606FA04F41688A7
:101AF000344013B10CB1012000E0002070BD10B5DE
:101B00000022002340F66A14A14200D100BF0A124D
:101B100001249440A3B2DC43048010BD003801408E
:101B20000044004000480040004C0040005000408D
:101B30002DE9F04107460D46164600240CE0295DCC
:101B40003846FFF7ECFE00BF40213846FFF797FF0D
:101B50000028F9D0601C84B2B442F0DBBDE8F0810B
:101B600010B504460523012221468648FEF775FB81
:101B70008448FEF71EFC00BF02218248FEF74CFDA0
:101B80000028F9D07F48FEF750FC10BD2DE9F04148
:101B900007460C460025002608E03846FFF7E0FF20
:101BA0000544052000F088FA701CC6B2A642F4DB9A
:101BB000B5FBF4F080B2BDE8F0818EB0202000F0DB
:101BC00043FA01218803FEF7EEFF01210846FEF7E4
:101BD000D9FF6D48FFF7B0FD4FF400700890022068
:101BE0008DF8240003208DF8250000208DF82600B4
:101BF00001208DF8270008A96448FEF793FD4FF4F3
:101C00008060089008A96148FEF78CFD0722092131
:101C10005E48FEF710FE07220A215C48FEF70BFE25
:101C20004FF4E1300A900020ADF82C00ADF82E0002
:101C3000ADF83000ADF834000C20ADF832000AA940
:101C40005148FFF7BCFD01214F48FFF73DFE012041
:101C5000FEF7A0FE01210220FEF794FF012008906C
:101C600003208DF8240000208DF8270008A948489B
:101C7000FEF758FD00BF2120FEF73CFE0028FAD0F9
:101C800001214802FEF78FFF01208DF80C008DF82E
:101C90000D0000200590069001208DF81C0002A97F
:101CA0003848FEF751FA0023012208213548FEF793
:101CB000D4FA01213348FEF787FA00BF40213148AA
:101CC000FEF7AAFC0028F9D02E48FEF772FB57E079
:101CD0000A210820FFF75AFF8246504600F0F4FA26
:101CE00006464FF066322B4B00F00DFA04460022F8
:101CF000294B00F07AFA80460022284B00F003FAC4
:101D0000CDE9000100F0EDFA1FFA80FA4FF47A7085
:101D10009AFBF0F03030224908702E2048704FF4C2
:101D20007A709AFBF0F100FB11A0642190FBF1F0B6
:101D300030301B49887064209AFBF0F100FB11A041
:101D40000A2190FBF1F030301549C8700A209AFB47
:101D5000F0F100FB11A0303011490871084600F085
:101D6000CBF984B222460E490748FFF7E1FE022272
:101D70000CA10548FFF7DCFE4FF47A7000F09CF9E7
:101D8000A6E70000002401400038014000000240A6
:101D90000004024066660A4000FEAF4000408F40EB
:101DA0001A0000200D0A00000CB5002001900090E0
:101DB0008748006840F480308549086000BF844847
:101DC000006800F4003000900198401C01900098D9
:101DD00018B90198B0F5A06FF1D17D48006800F402
:101DE000003010B10120009001E000200090009828
:101DF000012859D17748006840F00400754908600F
:101E00000846006840F0020008600846006840F09C
:101E1000010008606E482430006840F080506C4932
:101E200024310860C8146C49086000BF6A484068E3
:101E300000F010000028F9D16548083000686449B6
:101E400008310860084600680860084600680860B5
:101E50000846006820F47D0008600846006840F4E9
:101E60009A0008605A48006840F08070584908603D
:101E700000BF5748006800F000700028F9D05448AF
:101E80000830006820F00300514908310860084616
:101E9000006840F00300086000BF4D48083000684B
:101EA00000F00C000C28F8D10CBD10B548480068B3
:101EB00040F480704649086045480830006847494A
:101EC00008404349083108604148006844490840D7
:101ED0003F4908600846006820F4802008603C48BC
:101EE0000830006820F47D0039490831086000207E
:101EF000091D0860FFF758FF4FF00060394908607E
:101F000010BD70B500220020002100240023304DB8
:101F100008352D6805F00C0232B1042A10D0082AC9
:101F200012D00C2A39D113E0294D2D1D2D68C5F38F
:101F300042335D1C0126AE40F5032B4E356038E080
:101F40002A4D294E356034E0294D274E356030E06A
:101F50001F4D08352D6805F470101D4D08352D688E
:101F600005F44001234D05EB90452878012505EB4C
:101F70009151174D08352D6805F4803434B91B4D47
:101F80004543B5FBF1F5184E356005E0184D454366
:101F9000B5FBF1F5144E35600BE00D4D2D1D2D6890
:101FA000C5F342335D1C0126AE40F5030E4E35608D
:101FB00000BF00BF064D08352D68C5F303150E4E52
:101FC000725D094D2D68D540074E356070BD00002B
:101FD00000380240003C0240007000400CC0FF8806
:101FE000FEFFFEEE08ED00E0200000200024F400DB
:101FF00000127A00240000202D000020704700BF4E
:10200000FEE700BFFEE700BFFEE700BFFEE7704748
:1020100070477047704710B501218807FFF798FA9D
:1020200070B101218807FFF7A4FA06480078401C28
:102030000449087008460078052801D1002008707E
:1020400010BD0000190000204FF0E021096921F0C7
:1020500004014FF0E0221161C21700EB5272C2F38B
:10206000C702234B1A701946097801EB4102C2EBF3
:10207000C1114FF6FF7202EAC1011E4A118070477A
:1020800001461B4A12784A434FF0E0235A6100226E
:102090009A6101221A6100BF4FF0E022106900F03E
:1020A00001021AB100F48032002AF5D000224FF06C
:1020B000E0231A619A61704701460E4A12884A432A
:1020C0004FF0E0235A6100229A6101221A6100BF99
:1020D0004FF0E022106900F001021AB100F48032E2
:1020E000002AF5D000224FF0E0231A619A61704770
:1020F0003E00002040000020421C10F8011B002977
:10210000FBD1801A70472DE9FE4F81EA030404F0E9
:10211000004421F0004100944FF0000B23F00043F5
:1021200050EA01045ED052EA03045BD0C3F30A54C0
:10213000C1F30A552C44A4F2F3340194A0FB0254D9
:10214000C1F3130141F48011C3F3130343F480136B
:1021500001FB024400FB034E840A970A44EA8154BF
:1021600047EA8357A4FB076802958D0A05FB07859C
:102170004FEA932C04FB0C542705029D4FEA0658A6
:1021800047EA1637B5EB08056EEB070C870E920E83
:1021900047EA811742EA8312A7FB0201B6EB0B0163
:1021A00064EB00042B0D43EA0C335E1844EB1C5027
:1021B000DA465146E7FB0201C5F313044FEA0B333D
:1021C00043EA14534FEA0432019C43EA0603A4F1A4
:1021D0000C040294009CCDE900B400F0BAF803B0FE
:1021E000BDE8F08F00200146F9E72DE9F04D81EAC6
:1021F000030404F0004B21F0004514464FF0000AA0
:1022000023F0004150EA050220D054EA01021DD01B
:10221000C5F30A570246C5F31303C1F31300C1F314
:102220000A5640F4801543F48013A7EB0608101BF0
:10223000D64608F2FD3873EB050002D308F1010819
:1022400001E092185B41B8F1000F03DA002001466B
:10225000BDE8F08D00204FF48011064684460EE064
:10226000171B73EB050705D3121B63EB050306432E
:102270004CEA010C49084FEA300092185B4150EAE1
:102280000107EDD152EA030012D082EA040083EA8A
:102290000501084305D0101BAB4106D201220023E3
:1022A00006E000224FF0004302E06FF001025310FD
:1022B0001AEB06004CEB085110EB0A0041EB0B0146
:1022C000BDE8F04D00F036B80EB540F23341029152
:1022D0000021CDE900110A460B4600F03AF803B0A0
:1022E00000BDC1F30A5210B5C1F3130140F2FF3330
:1022F00041F480119A4201DA002010BD40F23343CC
:102300009A42A2F2334203DC524200F003F810BDBD
:10231000904010BD202A04DB203A21FA02F000216F
:10232000704721FA02F3D040C2F1200291400843E5
:102330001946704710B5141E73F1000408DA401CEA
:1023400041F1000192185B411A4301D120F00100D4
:1023500010BD2DE9F04D92469B4611B1B1FA81F2C4
:1023600002E0B0FA80F22032904600F053F80446C2
:102370000F4640EA0A0041EA0B0153465A46084319
:1023800013D0114653EA010019D0C8F1400250465B
:10239000FFF7C0FF05460E4650465946424600F03C
:1023A00039F8084305D0012004E020463946BDE84D
:1023B000F08D0020054346EAE0762C4337430A9827
:1023C0006305E40AA0EB08000022FD0A44EA475432
:1023D0000A3002D500200146E9E7010510196941DC
:1023E000DDE9084500196941BDE8F04DA2E70000AC
:1023F000064C074D06E0E06840F0010394E8070052
:1024000098471034AC42F6D3FDF778FE502400080C
:1024100070240008202A04DB203A00FA02F1002090
:1024200070479140C2F1200320FA03F31943904012
:10243000704702E008C8121F08C1002AFAD170478D
:102440007047002001E001C1121F002AFBD1704734
:10245000702400080000002044000000322400081E
:10246000B4240008440000200404000042240008B2
:10247000030406080C1018203000000000010203BD
:1024800004010203040607080900302E30303076BC
:102490000048E801030406080C1018203000000072
:1024A0000000000000010203040607080900000004
:0424B0000000000028
:04000005080000F5FA
:00000001FF
